
blink.elf:     file format elf32-avr

Sections:
Idx Name          Size      VMA       LMA       File off  Algn
  0 .text         0000005c  00000000  00000000  00000074  2**1
                  CONTENTS, ALLOC, LOAD, READONLY, CODE
  1 .data         00000000  00800060  0000005c  000000d0  2**0
                  CONTENTS, ALLOC, LOAD, DATA
  2 .comment      00000030  00000000  00000000  000000d0  2**0
                  CONTENTS, READONLY
  3 .debug_aranges 00000020  00000000  00000000  00000100  2**0
                  CONTENTS, READONLY, DEBUGGING
  4 .debug_info   0000010a  00000000  00000000  00000120  2**0
                  CONTENTS, READONLY, DEBUGGING
  5 .debug_abbrev 000000c2  00000000  00000000  0000022a  2**0
                  CONTENTS, READONLY, DEBUGGING
  6 .debug_line   00000130  00000000  00000000  000002ec  2**0
                  CONTENTS, READONLY, DEBUGGING
  7 .debug_frame  00000024  00000000  00000000  0000041c  2**2
                  CONTENTS, READONLY, DEBUGGING
  8 .debug_str    00000171  00000000  00000000  00000440  2**0
                  CONTENTS, READONLY, DEBUGGING
  9 .debug_ranges 00000010  00000000  00000000  000005b1  2**0
                  CONTENTS, READONLY, DEBUGGING

Disassembly of section .text:

00000000 <__vectors>:
   0:	12 c0       	rjmp	.+36     	; 0x26 <__ctors_end>
   2:	19 c0       	rjmp	.+50     	; 0x36 <__bad_interrupt>
   4:	18 c0       	rjmp	.+48     	; 0x36 <__bad_interrupt>
   6:	17 c0       	rjmp	.+46     	; 0x36 <__bad_interrupt>
   8:	16 c0       	rjmp	.+44     	; 0x36 <__bad_interrupt>
   a:	15 c0       	rjmp	.+42     	; 0x36 <__bad_interrupt>
   c:	14 c0       	rjmp	.+40     	; 0x36 <__bad_interrupt>
   e:	13 c0       	rjmp	.+38     	; 0x36 <__bad_interrupt>
  10:	12 c0       	rjmp	.+36     	; 0x36 <__bad_interrupt>
  12:	11 c0       	rjmp	.+34     	; 0x36 <__bad_interrupt>
  14:	10 c0       	rjmp	.+32     	; 0x36 <__bad_interrupt>
  16:	0f c0       	rjmp	.+30     	; 0x36 <__bad_interrupt>
  18:	0e c0       	rjmp	.+28     	; 0x36 <__bad_interrupt>
  1a:	0d c0       	rjmp	.+26     	; 0x36 <__bad_interrupt>
  1c:	0c c0       	rjmp	.+24     	; 0x36 <__bad_interrupt>
  1e:	0b c0       	rjmp	.+22     	; 0x36 <__bad_interrupt>
  20:	0a c0       	rjmp	.+20     	; 0x36 <__bad_interrupt>
  22:	09 c0       	rjmp	.+18     	; 0x36 <__bad_interrupt>
  24:	08 c0       	rjmp	.+16     	; 0x36 <__bad_interrupt>

00000026 <__ctors_end>:
  26:	11 24       	eor	r1, r1
  28:	1f be       	out	0x3f, r1	; 63
  2a:	cf e5       	ldi	r28, 0x5F	; 95
  2c:	d4 e0       	ldi	r29, 0x04	; 4
  2e:	de bf       	out	0x3e, r29	; 62
  30:	cd bf       	out	0x3d, r28	; 61
  32:	02 d0       	rcall	.+4      	; 0x38 <main>
  34:	11 c0       	rjmp	.+34     	; 0x58 <_exit>

00000036 <__bad_interrupt>:
  36:	e4 cf       	rjmp	.-56     	; 0x0 <__vectors>

00000038 <main>:
#include <avr/io.h>
#include <util/delay.h>

int main(void)
{
    DDRD = 0xFF; // data direction - output
  38:	8f ef       	ldi	r24, 0xFF	; 255
  3a:	81 bb       	out	0x11, r24	; 17
	
	PORTD = 0xFF; // all pull up (diodes on)
  3c:	82 bb       	out	0x12, r24	; 18
	
	while(1)
    {
		PORTD ^= 0xFF; // (0b1111 1111) PORTD ^= (1 << PD5); - blink only PD5
  3e:	82 b3       	in	r24, 0x12	; 18
  40:	80 95       	com	r24
  42:	82 bb       	out	0x12, r24	; 18
	#else
		//round up by default
		__ticks_dc = (uint32_t)(ceil(fabs(__tmp)));
	#endif

	__builtin_avr_delay_cycles(__ticks_dc);
  44:	2f ef       	ldi	r18, 0xFF	; 255
  46:	89 e6       	ldi	r24, 0x69	; 105
  48:	98 e1       	ldi	r25, 0x18	; 24
  4a:	21 50       	subi	r18, 0x01	; 1
  4c:	80 40       	sbci	r24, 0x00	; 0
  4e:	90 40       	sbci	r25, 0x00	; 0
  50:	e1 f7       	brne	.-8      	; 0x4a <__SREG__+0xb>
  52:	00 c0       	rjmp	.+0      	; 0x54 <__SREG__+0x15>
  54:	00 00       	nop
  56:	f3 cf       	rjmp	.-26     	; 0x3e <__SP_H__>

00000058 <_exit>:
  58:	f8 94       	cli

0000005a <__stop_program>:
  5a:	ff cf       	rjmp	.-2      	; 0x5a <__stop_program>
