
keyboard_74HC165_buttons_handle.elf:     file format elf32-avr

Sections:
Idx Name          Size      VMA       LMA       File off  Algn
  0 .data         00000000  00800100  00000460  000004f4  2**0
                  CONTENTS, ALLOC, LOAD, DATA
  1 .text         00000460  00000000  00000000  00000094  2**1
                  CONTENTS, ALLOC, LOAD, READONLY, CODE
  2 .bss          0000012d  00800100  00800100  000004f4  2**0
                  ALLOC
  3 .stab         000006cc  00000000  00000000  000004f4  2**2
                  CONTENTS, READONLY, DEBUGGING
  4 .stabstr      00000097  00000000  00000000  00000bc0  2**0
                  CONTENTS, READONLY, DEBUGGING
  5 .comment      0000002f  00000000  00000000  00000c57  2**0
                  CONTENTS, READONLY
  6 .debug_aranges 00000150  00000000  00000000  00000c86  2**0
                  CONTENTS, READONLY, DEBUGGING
  7 .debug_info   00000934  00000000  00000000  00000dd6  2**0
                  CONTENTS, READONLY, DEBUGGING
  8 .debug_abbrev 0000044a  00000000  00000000  0000170a  2**0
                  CONTENTS, READONLY, DEBUGGING
  9 .debug_line   00000911  00000000  00000000  00001b54  2**0
                  CONTENTS, READONLY, DEBUGGING
 10 .debug_frame  000002fc  00000000  00000000  00002468  2**2
                  CONTENTS, READONLY, DEBUGGING
 11 .debug_str    000004fc  00000000  00000000  00002764  2**0
                  CONTENTS, READONLY, DEBUGGING
 12 .debug_loc    000005ad  00000000  00000000  00002c60  2**0
                  CONTENTS, READONLY, DEBUGGING
 13 .debug_ranges 00000150  00000000  00000000  0000320d  2**0
                  CONTENTS, READONLY, DEBUGGING

Disassembly of section .text:

00000000 <__vectors>:
   0:	45 c0       	rjmp	.+138    	; 0x8c <__ctors_end>
   2:	00 00       	nop
   4:	53 c0       	rjmp	.+166    	; 0xac <__bad_interrupt>
   6:	00 00       	nop
   8:	51 c0       	rjmp	.+162    	; 0xac <__bad_interrupt>
   a:	00 00       	nop
   c:	4f c0       	rjmp	.+158    	; 0xac <__bad_interrupt>
   e:	00 00       	nop
  10:	4d c0       	rjmp	.+154    	; 0xac <__bad_interrupt>
  12:	00 00       	nop
  14:	4b c0       	rjmp	.+150    	; 0xac <__bad_interrupt>
  16:	00 00       	nop
  18:	49 c0       	rjmp	.+146    	; 0xac <__bad_interrupt>
  1a:	00 00       	nop
  1c:	47 c0       	rjmp	.+142    	; 0xac <__bad_interrupt>
  1e:	00 00       	nop
  20:	45 c0       	rjmp	.+138    	; 0xac <__bad_interrupt>
  22:	00 00       	nop
  24:	43 c0       	rjmp	.+134    	; 0xac <__bad_interrupt>
  26:	00 00       	nop
  28:	41 c0       	rjmp	.+130    	; 0xac <__bad_interrupt>
  2a:	00 00       	nop
  2c:	3f c0       	rjmp	.+126    	; 0xac <__bad_interrupt>
  2e:	00 00       	nop
  30:	b4 c0       	rjmp	.+360    	; 0x19a <__vector_12>
  32:	00 00       	nop
  34:	3b c0       	rjmp	.+118    	; 0xac <__bad_interrupt>
  36:	00 00       	nop
  38:	39 c0       	rjmp	.+114    	; 0xac <__bad_interrupt>
  3a:	00 00       	nop
  3c:	37 c0       	rjmp	.+110    	; 0xac <__bad_interrupt>
  3e:	00 00       	nop
  40:	35 c0       	rjmp	.+106    	; 0xac <__bad_interrupt>
  42:	00 00       	nop
  44:	33 c0       	rjmp	.+102    	; 0xac <__bad_interrupt>
  46:	00 00       	nop
  48:	91 c1       	rjmp	.+802    	; 0x36c <__vector_18>
  4a:	00 00       	nop
  4c:	c6 c1       	rjmp	.+908    	; 0x3da <__vector_19>
  4e:	00 00       	nop
  50:	2d c0       	rjmp	.+90     	; 0xac <__bad_interrupt>
  52:	00 00       	nop
  54:	2b c0       	rjmp	.+86     	; 0xac <__bad_interrupt>
  56:	00 00       	nop
  58:	29 c0       	rjmp	.+82     	; 0xac <__bad_interrupt>
  5a:	00 00       	nop
  5c:	27 c0       	rjmp	.+78     	; 0xac <__bad_interrupt>
  5e:	00 00       	nop
  60:	25 c0       	rjmp	.+74     	; 0xac <__bad_interrupt>
  62:	00 00       	nop
  64:	23 c0       	rjmp	.+70     	; 0xac <__bad_interrupt>
  66:	00 00       	nop
  68:	21 c0       	rjmp	.+66     	; 0xac <__bad_interrupt>
  6a:	00 00       	nop
  6c:	1f c0       	rjmp	.+62     	; 0xac <__bad_interrupt>
  6e:	00 00       	nop
  70:	1d c0       	rjmp	.+58     	; 0xac <__bad_interrupt>
  72:	00 00       	nop
  74:	1b c0       	rjmp	.+54     	; 0xac <__bad_interrupt>
  76:	00 00       	nop
  78:	19 c0       	rjmp	.+50     	; 0xac <__bad_interrupt>
  7a:	00 00       	nop
  7c:	17 c0       	rjmp	.+46     	; 0xac <__bad_interrupt>
  7e:	00 00       	nop
  80:	15 c0       	rjmp	.+42     	; 0xac <__bad_interrupt>
  82:	00 00       	nop
  84:	13 c0       	rjmp	.+38     	; 0xac <__bad_interrupt>
  86:	00 00       	nop
  88:	11 c0       	rjmp	.+34     	; 0xac <__bad_interrupt>
	...

0000008c <__ctors_end>:
  8c:	11 24       	eor	r1, r1
  8e:	1f be       	out	0x3f, r1	; 63
  90:	cf ef       	ldi	r28, 0xFF	; 255
  92:	d0 e1       	ldi	r29, 0x10	; 16
  94:	de bf       	out	0x3e, r29	; 62
  96:	cd bf       	out	0x3d, r28	; 61

00000098 <__do_clear_bss>:
  98:	22 e0       	ldi	r18, 0x02	; 2
  9a:	a0 e0       	ldi	r26, 0x00	; 0
  9c:	b1 e0       	ldi	r27, 0x01	; 1
  9e:	01 c0       	rjmp	.+2      	; 0xa2 <.do_clear_bss_start>

000000a0 <.do_clear_bss_loop>:
  a0:	1d 92       	st	X+, r1

000000a2 <.do_clear_bss_start>:
  a2:	ad 32       	cpi	r26, 0x2D	; 45
  a4:	b2 07       	cpc	r27, r18
  a6:	e1 f7       	brne	.-8      	; 0xa0 <.do_clear_bss_loop>
  a8:	27 d1       	rcall	.+590    	; 0x2f8 <main>
  aa:	d8 c1       	rjmp	.+944    	; 0x45c <_exit>

000000ac <__bad_interrupt>:
  ac:	a9 cf       	rjmp	.-174    	; 0x0 <__vectors>

000000ae <button_ribbon_length_1m_handler>:
	
	return 0;
}

void button_ribbon_length_1m_handler() {
	PORTA |= 1<<PIN_LED;
  ae:	d9 9a       	sbi	0x1b, 1	; 27
  b0:	08 95       	ret

000000b2 <button_ribbon_length_5m_handler>:
}
void button_ribbon_length_5m_handler() {
  b2:	08 95       	ret

000000b4 <button_ribbon_length_20m_handler>:
	
}
void button_ribbon_length_20m_handler() {
	PORTA |= 1<<PIN_LED;
  b4:	d9 9a       	sbi	0x1b, 1	; 27
  b6:	08 95       	ret

000000b8 <button_ribbon_length_1cm_handler>:
}
void button_ribbon_length_1cm_handler() {
  b8:	08 95       	ret

000000ba <button_ribbon_length_10cm_handler>:
	
}
void button_ribbon_length_10cm_handler() {
  ba:	08 95       	ret

000000bc <button_ribbon_length_50cm_handler>:
	
}
void button_ribbon_length_50cm_handler() {
  bc:	08 95       	ret

000000be <button_rewind_pause>:
	
}
void button_rewind_pause() {
  be:	08 95       	ret

000000c0 <button_rewind_while_pressed>:
	
}
void button_rewind_while_pressed() {
  c0:	08 95       	ret

000000c2 <button_diametr_decrement>:
	
}
void button_diametr_decrement() {
  c2:	08 95       	ret

000000c4 <button_diametr_increment>:
	
}
void button_diametr_increment() {
  c4:	08 95       	ret

000000c6 <button_distance_decrement>:
	
}
void button_distance_decrement() {
  c6:	08 95       	ret

000000c8 <button_distance_increment>:
	
}
void button_distance_increment() {
  c8:	08 95       	ret

000000ca <button_max_rpm_decrement>:
	
}
void button_max_rpm_decrement() {
  ca:	08 95       	ret

000000cc <button_max_rpm_increment>:
	
}
void button_max_rpm_increment() {
	PORTA |= 1<<PIN_LED;
  cc:	d9 9a       	sbi	0x1b, 1	; 27
  ce:	08 95       	ret

000000d0 <io_init>:
	}

}

void io_init(void) {
	DDRA	|= 1<<PIN_LED; //Set as output
  d0:	d1 9a       	sbi	0x1a, 1	; 26
	PORTA	&= ~(1<<PIN_LED); // 1 - led off, 0 - led on, Proteus simulator - backwards
  d2:	d9 98       	cbi	0x1b, 1	; 27
  d4:	08 95       	ret

000000d6 <timer1_init>:
}

void timer1_init(void){
	TCCR1B	|= 1<<WGM12;			//Timer in CTC mode
  d6:	8e b5       	in	r24, 0x2e	; 46
  d8:	88 60       	ori	r24, 0x08	; 8
  da:	8e bd       	out	0x2e, r24	; 46
	TCCR1B	|= 1<<CS11|1<<CS10;		//Prescaler to 1:64/F_CPU:64
  dc:	8e b5       	in	r24, 0x2e	; 46
  de:	83 60       	ori	r24, 0x03	; 3
  e0:	8e bd       	out	0x2e, r24	; 46
	OCR1A	= 124;					//Value to have an compare at every 1ms = 1000Hz (Target Timer Count = (((Input Frequency / Prescaler) / Target Frequency) - 1) -> Target Timer Count = (((8000000Hz / 64) / 1000Hz) - 1) = 124)
  e2:	8c e7       	ldi	r24, 0x7C	; 124
  e4:	90 e0       	ldi	r25, 0x00	; 0
  e6:	9b bd       	out	0x2b, r25	; 43
  e8:	8a bd       	out	0x2a, r24	; 42
	TIMSK	= 1<<OCIE1A;			//Enable timer interrupts
  ea:	80 e1       	ldi	r24, 0x10	; 16
  ec:	87 bf       	out	0x37, r24	; 55
  ee:	08 95       	ret

000000f0 <buttons_init>:
}

void buttons_init() {
	buttons_service_routines[BUTTON_RIBBON_LENGTH_1M] = button_ribbon_length_1m_handler;
  f0:	87 e5       	ldi	r24, 0x57	; 87
  f2:	90 e0       	ldi	r25, 0x00	; 0
  f4:	90 93 12 02 	sts	0x0212, r25
  f8:	80 93 11 02 	sts	0x0211, r24
	buttons_service_routines[BUTTON_RIBBON_LENGTH_5M] = button_ribbon_length_5m_handler;
  fc:	89 e5       	ldi	r24, 0x59	; 89
  fe:	90 e0       	ldi	r25, 0x00	; 0
 100:	90 93 14 02 	sts	0x0214, r25
 104:	80 93 13 02 	sts	0x0213, r24
	buttons_service_routines[BUTTON_RIBBON_LENGTH_20M] = button_ribbon_length_20m_handler;
 108:	8a e5       	ldi	r24, 0x5A	; 90
 10a:	90 e0       	ldi	r25, 0x00	; 0
 10c:	90 93 16 02 	sts	0x0216, r25
 110:	80 93 15 02 	sts	0x0215, r24
	buttons_service_routines[BUTTON_RIBBON_LENGTH_1CM] = button_ribbon_length_1cm_handler;
 114:	8c e5       	ldi	r24, 0x5C	; 92
 116:	90 e0       	ldi	r25, 0x00	; 0
 118:	90 93 18 02 	sts	0x0218, r25
 11c:	80 93 17 02 	sts	0x0217, r24
	buttons_service_routines[BUTTON_RIBBON_LENGTH_10CM] = button_ribbon_length_10cm_handler;
 120:	8d e5       	ldi	r24, 0x5D	; 93
 122:	90 e0       	ldi	r25, 0x00	; 0
 124:	90 93 1a 02 	sts	0x021A, r25
 128:	80 93 19 02 	sts	0x0219, r24
	buttons_service_routines[BUTTON_RIBBON_LENGTH_50CM] = button_ribbon_length_50cm_handler;
 12c:	8e e5       	ldi	r24, 0x5E	; 94
 12e:	90 e0       	ldi	r25, 0x00	; 0
 130:	90 93 1c 02 	sts	0x021C, r25
 134:	80 93 1b 02 	sts	0x021B, r24
	buttons_service_routines[BUTTON_REWIND_PAUSE] = button_rewind_pause;
 138:	8f e5       	ldi	r24, 0x5F	; 95
 13a:	90 e0       	ldi	r25, 0x00	; 0
 13c:	90 93 1e 02 	sts	0x021E, r25
 140:	80 93 1d 02 	sts	0x021D, r24
	buttons_service_routines[BUTTON_REWIND_WHILE_PRESSED] = button_rewind_while_pressed;
 144:	80 e6       	ldi	r24, 0x60	; 96
 146:	90 e0       	ldi	r25, 0x00	; 0
 148:	90 93 20 02 	sts	0x0220, r25
 14c:	80 93 1f 02 	sts	0x021F, r24
	buttons_service_routines[BUTTON_DIAMETR_DECREMENT] = button_diametr_decrement;
 150:	81 e6       	ldi	r24, 0x61	; 97
 152:	90 e0       	ldi	r25, 0x00	; 0
 154:	90 93 22 02 	sts	0x0222, r25
 158:	80 93 21 02 	sts	0x0221, r24
	buttons_service_routines[BUTTON_DIAMETR_INCREMENT] = button_diametr_increment;
 15c:	82 e6       	ldi	r24, 0x62	; 98
 15e:	90 e0       	ldi	r25, 0x00	; 0
 160:	90 93 24 02 	sts	0x0224, r25
 164:	80 93 23 02 	sts	0x0223, r24
	buttons_service_routines[BUTTON_DISTANCE_DECREMENT] = button_distance_decrement;
 168:	83 e6       	ldi	r24, 0x63	; 99
 16a:	90 e0       	ldi	r25, 0x00	; 0
 16c:	90 93 26 02 	sts	0x0226, r25
 170:	80 93 25 02 	sts	0x0225, r24
	buttons_service_routines[BUTTON_DISTANCE_INCREMENT] = button_distance_increment;
 174:	84 e6       	ldi	r24, 0x64	; 100
 176:	90 e0       	ldi	r25, 0x00	; 0
 178:	90 93 28 02 	sts	0x0228, r25
 17c:	80 93 27 02 	sts	0x0227, r24
	buttons_service_routines[BUTTON_MAX_RPM_DECREMENT] = button_max_rpm_decrement;
 180:	85 e6       	ldi	r24, 0x65	; 101
 182:	90 e0       	ldi	r25, 0x00	; 0
 184:	90 93 2a 02 	sts	0x022A, r25
 188:	80 93 29 02 	sts	0x0229, r24
	buttons_service_routines[BUTTON_MAX_RPM_INCREMENT] = button_max_rpm_increment;
 18c:	86 e6       	ldi	r24, 0x66	; 102
 18e:	90 e0       	ldi	r25, 0x00	; 0
 190:	90 93 2c 02 	sts	0x022C, r25
 194:	80 93 2b 02 	sts	0x022B, r24
 198:	08 95       	ret

0000019a <__vector_12>:
}

ISR(TIMER1_COMPA_vect){ //This is our interrupt service routine
 19a:	1f 92       	push	r1
 19c:	0f 92       	push	r0
 19e:	0f b6       	in	r0, 0x3f	; 63
 1a0:	0f 92       	push	r0
 1a2:	11 24       	eor	r1, r1
 1a4:	8f 93       	push	r24
 1a6:	9f 93       	push	r25
 1a8:	af 93       	push	r26
 1aa:	bf 93       	push	r27
	milis += 1; //Increase milis count by one millisecond
 1ac:	80 91 04 01 	lds	r24, 0x0104
 1b0:	90 91 05 01 	lds	r25, 0x0105
 1b4:	a0 91 06 01 	lds	r26, 0x0106
 1b8:	b0 91 07 01 	lds	r27, 0x0107
 1bc:	01 96       	adiw	r24, 0x01	; 1
 1be:	a1 1d       	adc	r26, r1
 1c0:	b1 1d       	adc	r27, r1
 1c2:	80 93 04 01 	sts	0x0104, r24
 1c6:	90 93 05 01 	sts	0x0105, r25
 1ca:	a0 93 06 01 	sts	0x0106, r26
 1ce:	b0 93 07 01 	sts	0x0107, r27
}
 1d2:	bf 91       	pop	r27
 1d4:	af 91       	pop	r26
 1d6:	9f 91       	pop	r25
 1d8:	8f 91       	pop	r24
 1da:	0f 90       	pop	r0
 1dc:	0f be       	out	0x3f, r0	; 63
 1de:	0f 90       	pop	r0
 1e0:	1f 90       	pop	r1
 1e2:	18 95       	reti

000001e4 <poll_buttons>:

/*
	poll buttons 
	return: current pressed button id starts from less bit or 0 if no one button was pressed
*/
int poll_buttons() {
 1e4:	0f 93       	push	r16
 1e6:	1f 93       	push	r17
 1e8:	cf 93       	push	r28
 1ea:	df 93       	push	r29
 1ec:	00 d0       	rcall	.+0      	; 0x1ee <poll_buttons+0xa>
 1ee:	cd b7       	in	r28, 0x3d	; 61
 1f0:	de b7       	in	r29, 0x3e	; 62
	uint8_t bytearray[L74HC165_ICNUMBER];
	const uint8_t pressed = 0; // 0 - button pressed, 1 - button unpressed
	int button_pressed_number = 1;
	
	l74hc165_shiftin(bytearray); //read data
 1f2:	ce 01       	movw	r24, r28
 1f4:	01 96       	adiw	r24, 0x01	; 1
 1f6:	90 d0       	rcall	.+288    	; 0x318 <l74hc165_shiftin>
 1f8:	fe 01       	movw	r30, r28
 1fa:	31 96       	adiw	r30, 0x01	; 1

/*
	poll buttons 
	return: current pressed button id starts from less bit or 0 if no one button was pressed
*/
int poll_buttons() {
 1fc:	8e 01       	movw	r16, r28
 1fe:	0d 5f       	subi	r16, 0xFD	; 253
 200:	1f 4f       	sbci	r17, 0xFF	; 255
	uint8_t bytearray[L74HC165_ICNUMBER];
	const uint8_t pressed = 0; // 0 - button pressed, 1 - button unpressed
	int button_pressed_number = 1;
 202:	41 e0       	ldi	r20, 0x01	; 1
 204:	50 e0       	ldi	r21, 0x00	; 0
	
	l74hc165_shiftin(bytearray); //read data
	
	for(int i = 0; i < L74HC165_ICNUMBER; i++) {
		for (int button = 1; button <= 128; button <<= 1, button_pressed_number++) {
			if ( (button & bytearray[i]) == pressed && button_pressed_number <= BUTTONS_QUANTITY ) {
 206:	a1 e0       	ldi	r26, 0x01	; 1
 208:	b0 e0       	ldi	r27, 0x00	; 0
 20a:	12 c0       	rjmp	.+36     	; 0x230 <poll_buttons+0x4c>
 20c:	c9 01       	movw	r24, r18
 20e:	86 23       	and	r24, r22
 210:	97 23       	and	r25, r23
 212:	89 2b       	or	r24, r25
 214:	19 f4       	brne	.+6      	; 0x21c <poll_buttons+0x38>
 216:	4f 30       	cpi	r20, 0x0F	; 15
 218:	51 05       	cpc	r21, r1
 21a:	84 f0       	brlt	.+32     	; 0x23c <poll_buttons+0x58>
	int button_pressed_number = 1;
	
	l74hc165_shiftin(bytearray); //read data
	
	for(int i = 0; i < L74HC165_ICNUMBER; i++) {
		for (int button = 1; button <= 128; button <<= 1, button_pressed_number++) {
 21c:	22 0f       	add	r18, r18
 21e:	33 1f       	adc	r19, r19
 220:	4f 5f       	subi	r20, 0xFF	; 255
 222:	5f 4f       	sbci	r21, 0xFF	; 255
 224:	21 38       	cpi	r18, 0x81	; 129
 226:	31 05       	cpc	r19, r1
 228:	8c f3       	brlt	.-30     	; 0x20c <poll_buttons+0x28>
	const uint8_t pressed = 0; // 0 - button pressed, 1 - button unpressed
	int button_pressed_number = 1;
	
	l74hc165_shiftin(bytearray); //read data
	
	for(int i = 0; i < L74HC165_ICNUMBER; i++) {
 22a:	e0 17       	cp	r30, r16
 22c:	f1 07       	cpc	r31, r17
 22e:	21 f0       	breq	.+8      	; 0x238 <poll_buttons+0x54>
		for (int button = 1; button <= 128; button <<= 1, button_pressed_number++) {
			if ( (button & bytearray[i]) == pressed && button_pressed_number <= BUTTONS_QUANTITY ) {
 230:	61 91       	ld	r22, Z+
 232:	70 e0       	ldi	r23, 0x00	; 0
 234:	9d 01       	movw	r18, r26
 236:	ea cf       	rjmp	.-44     	; 0x20c <poll_buttons+0x28>
				return button_pressed_number;
			}
		}
	}
	
	return 0;
 238:	40 e0       	ldi	r20, 0x00	; 0
 23a:	50 e0       	ldi	r21, 0x00	; 0
}
 23c:	84 2f       	mov	r24, r20
 23e:	95 2f       	mov	r25, r21
 240:	0f 90       	pop	r0
 242:	0f 90       	pop	r0
 244:	df 91       	pop	r29
 246:	cf 91       	pop	r28
 248:	1f 91       	pop	r17
 24a:	0f 91       	pop	r16
 24c:	08 95       	ret

0000024e <handle_buttons>:
/*
	every 25 ms poll buttons
	for every pressed button call according handler function
*/
void handle_buttons() {
	if ( milis < CONTACT_BOUNCE_DELEY ) {
 24e:	80 91 04 01 	lds	r24, 0x0104
 252:	90 91 05 01 	lds	r25, 0x0105
 256:	a0 91 06 01 	lds	r26, 0x0106
 25a:	b0 91 07 01 	lds	r27, 0x0107
 25e:	49 97       	sbiw	r24, 0x19	; 25
 260:	a1 05       	cpc	r26, r1
 262:	b1 05       	cpc	r27, r1
 264:	08 f4       	brcc	.+2      	; 0x268 <handle_buttons+0x1a>
 266:	47 c0       	rjmp	.+142    	; 0x2f6 <handle_buttons+0xa8>
		return;
	}
	
	int current_button_pressed = poll_buttons();
 268:	bd df       	rcall	.-134    	; 0x1e4 <poll_buttons>
	
	if ( current_button_pressed == button_pressed && button_pressed != 0 ) { //contact bounce handle
 26a:	20 91 02 01 	lds	r18, 0x0102
 26e:	30 91 03 01 	lds	r19, 0x0103
 272:	82 17       	cp	r24, r18
 274:	93 07       	cpc	r25, r19
 276:	09 f5       	brne	.+66     	; 0x2ba <handle_buttons+0x6c>
 278:	20 91 02 01 	lds	r18, 0x0102
 27c:	30 91 03 01 	lds	r19, 0x0103
 280:	23 2b       	or	r18, r19
 282:	d9 f0       	breq	.+54     	; 0x2ba <handle_buttons+0x6c>
		button_pressed_polls += 1;
 284:	20 91 00 01 	lds	r18, 0x0100
 288:	30 91 01 01 	lds	r19, 0x0101
 28c:	2f 5f       	subi	r18, 0xFF	; 255
 28e:	3f 4f       	sbci	r19, 0xFF	; 255
 290:	30 93 01 01 	sts	0x0101, r19
 294:	20 93 00 01 	sts	0x0100, r18
		
		if ( button_pressed_polls >= MIN_TRESHOLD_FIRST_ACTION ) { //execute button service routine
 298:	20 91 00 01 	lds	r18, 0x0100
 29c:	30 91 01 01 	lds	r19, 0x0101
 2a0:	2a 30       	cpi	r18, 0x0A	; 10
 2a2:	31 05       	cpc	r19, r1
 2a4:	00 f1       	brcs	.+64     	; 0x2e6 <handle_buttons+0x98>
			buttons_service_routines[current_button_pressed]();
 2a6:	fc 01       	movw	r30, r24
 2a8:	ee 0f       	add	r30, r30
 2aa:	ff 1f       	adc	r31, r31
 2ac:	e1 5f       	subi	r30, 0xF1	; 241
 2ae:	fd 4f       	sbci	r31, 0xFD	; 253
 2b0:	01 90       	ld	r0, Z+
 2b2:	f0 81       	ld	r31, Z
 2b4:	e0 2d       	mov	r30, r0
 2b6:	09 95       	icall
 2b8:	16 c0       	rjmp	.+44     	; 0x2e6 <handle_buttons+0x98>
		}
	} else if ( current_button_pressed ) { //first button poll
 2ba:	00 97       	sbiw	r24, 0x00	; 0
 2bc:	59 f0       	breq	.+22     	; 0x2d4 <handle_buttons+0x86>
		button_pressed = current_button_pressed;
 2be:	90 93 03 01 	sts	0x0103, r25
 2c2:	80 93 02 01 	sts	0x0102, r24
		button_pressed_polls = 1;
 2c6:	81 e0       	ldi	r24, 0x01	; 1
 2c8:	90 e0       	ldi	r25, 0x00	; 0
 2ca:	90 93 01 01 	sts	0x0101, r25
 2ce:	80 93 00 01 	sts	0x0100, r24
 2d2:	09 c0       	rjmp	.+18     	; 0x2e6 <handle_buttons+0x98>
	} else { //buttons unpressed
		button_pressed = 0;
 2d4:	10 92 03 01 	sts	0x0103, r1
 2d8:	10 92 02 01 	sts	0x0102, r1
		button_pressed_polls = 0;
 2dc:	10 92 01 01 	sts	0x0101, r1
 2e0:	10 92 00 01 	sts	0x0100, r1
		PORTA &= ~(1<<PIN_LED);
 2e4:	d9 98       	cbi	0x1b, 1	; 27
	}
	
	milis = 0;	
 2e6:	10 92 04 01 	sts	0x0104, r1
 2ea:	10 92 05 01 	sts	0x0105, r1
 2ee:	10 92 06 01 	sts	0x0106, r1
 2f2:	10 92 07 01 	sts	0x0107, r1
 2f6:	08 95       	ret

000002f8 <main>:
void button_max_rpm_decrement();
void button_max_rpm_increment();

int main(void)
{
	io_init();
 2f8:	eb de       	rcall	.-554    	; 0xd0 <io_init>
	timer1_init();
 2fa:	ed de       	rcall	.-550    	; 0xd6 <timer1_init>
	buttons_init();
 2fc:	f9 de       	rcall	.-526    	; 0xf0 <buttons_init>
	uart_init(UART_BAUD_SELECT(UART_BAUD_RATE, F_CPU));
 2fe:	83 e3       	ldi	r24, 0x33	; 51
 300:	90 e0       	ldi	r25, 0x00	; 0
 302:	96 d0       	rcall	.+300    	; 0x430 <uart0_init>
	l74hc165_init();
 304:	03 d0       	rcall	.+6      	; 0x30c <l74hc165_init>
	sei(); //Enable global interrupts (UART, ...)
 306:	78 94       	sei
	
	for(;;) {
		
		handle_buttons();
 308:	a2 df       	rcall	.-188    	; 0x24e <handle_buttons>
 30a:	fe cf       	rjmp	.-4      	; 0x308 <main+0x10>

0000030c <l74hc165_init>:
/*
 * init the shift register
 */
void l74hc165_init() {
	//output
	L74HC165_DDR |= (1 << L74HC165_CLOCKPIN);
 30c:	b9 9a       	sbi	0x17, 1	; 23
	L74HC165_DDR |= (1 << L74HC165_LOADPIN);
 30e:	b8 9a       	sbi	0x17, 0	; 23
	//input
	L74HC165_DDR &= ~(1 << L74HC165_DATAPIN);
 310:	ba 98       	cbi	0x17, 2	; 23
	//low
	L74HC165_PORT &= ~(1 << L74HC165_CLOCKPIN);
 312:	c1 98       	cbi	0x18, 1	; 24
	L74HC165_PORT &= ~(1 << L74HC165_LOADPIN);
 314:	c0 98       	cbi	0x18, 0	; 24
 316:	08 95       	ret

00000318 <l74hc165_shiftin>:
}

/*
 * shift in data
 */
void l74hc165_shiftin(uint8_t *bytearray) {
 318:	cf 93       	push	r28
	//parallel load to freeze the state of the data lines
	L74HC165_PORT &= ~(1 << L74HC165_LOADPIN);
 31a:	c0 98       	cbi	0x18, 0	; 24
	#else
		//round up by default
		__ticks_dc = (uint32_t)(ceil(fabs(__tmp)));
	#endif

	__builtin_avr_delay_cycles(__ticks_dc);
 31c:	00 c0       	rjmp	.+0      	; 0x31e <l74hc165_shiftin+0x6>
 31e:	00 c0       	rjmp	.+0      	; 0x320 <l74hc165_shiftin+0x8>
 320:	00 00       	nop
	_delay_us(5);
	L74HC165_PORT |= (1 << L74HC165_LOADPIN);
 322:	c0 9a       	sbi	0x18, 0	; 24
 324:	e8 2f       	mov	r30, r24
 326:	f9 2f       	mov	r31, r25
	for(uint8_t i = 0; i < L74HC165_ICNUMBER; i++){
 328:	b0 e0       	ldi	r27, 0x00	; 0
}

/*
 * shift in data
 */
void l74hc165_shiftin(uint8_t *bytearray) {
 32a:	67 e0       	ldi	r22, 0x07	; 7
 32c:	70 e0       	ldi	r23, 0x00	; 0
 32e:	c0 e0       	ldi	r28, 0x00	; 0
 330:	18 c0       	rjmp	.+48     	; 0x362 <l74hc165_shiftin+0x4a>
	L74HC165_PORT |= (1 << L74HC165_LOADPIN);
	for(uint8_t i = 0; i < L74HC165_ICNUMBER; i++){
		//iterate through the bits in each registers
		uint8_t currentbyte = 0;
		for(uint8_t j = 0; j < 8; j++){
			currentbyte |= ((L74HC165_PIN & (1 << L74HC165_DATAPIN))>>L74HC165_DATAPIN)<<(7-j);
 332:	46 b3       	in	r20, 0x16	; 22
 334:	42 fb       	bst	r20, 2
 336:	22 27       	eor	r18, r18
 338:	20 f9       	bld	r18, 0
 33a:	30 e0       	ldi	r19, 0x00	; 0
 33c:	a9 01       	movw	r20, r18
 33e:	08 2e       	mov	r0, r24
 340:	02 c0       	rjmp	.+4      	; 0x346 <l74hc165_shiftin+0x2e>
 342:	44 0f       	add	r20, r20
 344:	55 1f       	adc	r21, r21
 346:	0a 94       	dec	r0
 348:	e2 f7       	brpl	.-8      	; 0x342 <l74hc165_shiftin+0x2a>
 34a:	a4 2b       	or	r26, r20
	        //get next
			L74HC165_PORT |= (1 << L74HC165_CLOCKPIN);
 34c:	c1 9a       	sbi	0x18, 1	; 24
 34e:	00 c0       	rjmp	.+0      	; 0x350 <l74hc165_shiftin+0x38>
 350:	00 c0       	rjmp	.+0      	; 0x352 <l74hc165_shiftin+0x3a>
 352:	00 00       	nop
	        _delay_us(5);
	        L74HC165_PORT &= ~(1 << L74HC165_CLOCKPIN);
 354:	c1 98       	cbi	0x18, 1	; 24
 356:	01 97       	sbiw	r24, 0x01	; 1
 358:	60 f7       	brcc	.-40     	; 0x332 <l74hc165_shiftin+0x1a>
		}
		memcpy(&bytearray[i], &currentbyte, 1);
 35a:	a1 93       	st	Z+, r26
void l74hc165_shiftin(uint8_t *bytearray) {
	//parallel load to freeze the state of the data lines
	L74HC165_PORT &= ~(1 << L74HC165_LOADPIN);
	_delay_us(5);
	L74HC165_PORT |= (1 << L74HC165_LOADPIN);
	for(uint8_t i = 0; i < L74HC165_ICNUMBER; i++){
 35c:	bf 5f       	subi	r27, 0xFF	; 255
 35e:	b2 30       	cpi	r27, 0x02	; 2
 360:	19 f0       	breq	.+6      	; 0x368 <l74hc165_shiftin+0x50>
}

/*
 * shift in data
 */
void l74hc165_shiftin(uint8_t *bytearray) {
 362:	cb 01       	movw	r24, r22
 364:	ac 2f       	mov	r26, r28
 366:	e5 cf       	rjmp	.-54     	; 0x332 <l74hc165_shiftin+0x1a>
	        _delay_us(5);
	        L74HC165_PORT &= ~(1 << L74HC165_CLOCKPIN);
		}
		memcpy(&bytearray[i], &currentbyte, 1);
	}
}
 368:	cf 91       	pop	r28
 36a:	08 95       	ret

0000036c <__vector_18>:
ISR(UART0_RECEIVE_INTERRUPT)
/*************************************************************************
Function: UART Receive Complete interrupt
Purpose:  called when the UART has received a character
**************************************************************************/
{
 36c:	1f 92       	push	r1
 36e:	0f 92       	push	r0
 370:	0f b6       	in	r0, 0x3f	; 63
 372:	0f 92       	push	r0
 374:	11 24       	eor	r1, r1
 376:	0b b6       	in	r0, 0x3b	; 59
 378:	0f 92       	push	r0
 37a:	2f 93       	push	r18
 37c:	3f 93       	push	r19
 37e:	4f 93       	push	r20
 380:	5f 93       	push	r21
 382:	8f 93       	push	r24
 384:	9f 93       	push	r25
 386:	ef 93       	push	r30
 388:	ff 93       	push	r31
    uint8_t data;
    uint8_t usr;
    uint8_t lastRxError;
 
    /* read UART status register and UART data register */ 
    usr  = UART0_STATUS;
 38a:	4b b1       	in	r20, 0x0b	; 11
    data = UART0_DATA;
 38c:	5c b1       	in	r21, 0x0c	; 12
#if defined( AT90_UART )
    lastRxError = (usr & (_BV(FE)|_BV(DOR)) );
#elif defined( ATMEGA_USART )
    lastRxError = (usr & (_BV(FE)|_BV(DOR)) );
#elif defined( ATMEGA_USART0 )
    lastRxError = (usr & (_BV(FE0)|_BV(DOR0)) );
 38e:	48 71       	andi	r20, 0x18	; 24
#elif defined ( ATMEGA_UART )
    lastRxError = (usr & (_BV(FE)|_BV(DOR)) );
#endif
        
    /* calculate buffer index */ 
    tmphead = ( UART_RxHead + 1) & UART_RX0_BUFFER_MASK;
 390:	80 91 0a 01 	lds	r24, 0x010A
 394:	90 e0       	ldi	r25, 0x00	; 0
 396:	01 96       	adiw	r24, 0x01	; 1
 398:	8f 77       	andi	r24, 0x7F	; 127
 39a:	99 27       	eor	r25, r25
    
    if ( tmphead == UART_RxTail ) {
 39c:	20 91 09 01 	lds	r18, 0x0109
 3a0:	30 e0       	ldi	r19, 0x00	; 0
 3a2:	28 17       	cp	r18, r24
 3a4:	39 07       	cpc	r19, r25
 3a6:	39 f0       	breq	.+14     	; 0x3b6 <__vector_18+0x4a>
        /* error: receive buffer overflow */
        lastRxError = UART_BUFFER_OVERFLOW >> 8;
    } else {
        /* store new index */
        UART_RxHead = tmphead;
 3a8:	80 93 0a 01 	sts	0x010A, r24
        /* store received data in buffer */
        UART_RxBuf[tmphead] = data;
 3ac:	fc 01       	movw	r30, r24
 3ae:	e3 5f       	subi	r30, 0xF3	; 243
 3b0:	fe 4f       	sbci	r31, 0xFE	; 254
 3b2:	50 83       	st	Z, r21
 3b4:	01 c0       	rjmp	.+2      	; 0x3b8 <__vector_18+0x4c>
    /* calculate buffer index */ 
    tmphead = ( UART_RxHead + 1) & UART_RX0_BUFFER_MASK;
    
    if ( tmphead == UART_RxTail ) {
        /* error: receive buffer overflow */
        lastRxError = UART_BUFFER_OVERFLOW >> 8;
 3b6:	42 e0       	ldi	r20, 0x02	; 2
        /* store new index */
        UART_RxHead = tmphead;
        /* store received data in buffer */
        UART_RxBuf[tmphead] = data;
    }
    UART_LastRxError = lastRxError;   
 3b8:	40 93 08 01 	sts	0x0108, r20
}
 3bc:	ff 91       	pop	r31
 3be:	ef 91       	pop	r30
 3c0:	9f 91       	pop	r25
 3c2:	8f 91       	pop	r24
 3c4:	5f 91       	pop	r21
 3c6:	4f 91       	pop	r20
 3c8:	3f 91       	pop	r19
 3ca:	2f 91       	pop	r18
 3cc:	0f 90       	pop	r0
 3ce:	0b be       	out	0x3b, r0	; 59
 3d0:	0f 90       	pop	r0
 3d2:	0f be       	out	0x3f, r0	; 63
 3d4:	0f 90       	pop	r0
 3d6:	1f 90       	pop	r1
 3d8:	18 95       	reti

000003da <__vector_19>:
ISR(UART0_TRANSMIT_INTERRUPT)
/*************************************************************************
Function: UART Data Register Empty interrupt
Purpose:  called when the UART is ready to transmit the next byte
**************************************************************************/
{
 3da:	1f 92       	push	r1
 3dc:	0f 92       	push	r0
 3de:	0f b6       	in	r0, 0x3f	; 63
 3e0:	0f 92       	push	r0
 3e2:	11 24       	eor	r1, r1
 3e4:	0b b6       	in	r0, 0x3b	; 59
 3e6:	0f 92       	push	r0
 3e8:	8f 93       	push	r24
 3ea:	9f 93       	push	r25
 3ec:	ef 93       	push	r30
 3ee:	ff 93       	push	r31
    uint16_t tmptail;

    if ( UART_TxHead != UART_TxTail) {
 3f0:	90 91 0c 01 	lds	r25, 0x010C
 3f4:	80 91 0b 01 	lds	r24, 0x010B
 3f8:	98 17       	cp	r25, r24
 3fa:	71 f0       	breq	.+28     	; 0x418 <__vector_19+0x3e>
        /* calculate and store new buffer index */
        tmptail = (UART_TxTail + 1) & UART_TX0_BUFFER_MASK;
 3fc:	80 91 0b 01 	lds	r24, 0x010B
 400:	90 e0       	ldi	r25, 0x00	; 0
 402:	01 96       	adiw	r24, 0x01	; 1
 404:	8f 77       	andi	r24, 0x7F	; 127
 406:	99 27       	eor	r25, r25
        UART_TxTail = tmptail;
 408:	80 93 0b 01 	sts	0x010B, r24
        /* get one byte from buffer and write it to UART */
        UART0_DATA = UART_TxBuf[tmptail];  /* start transmission */
 40c:	fc 01       	movw	r30, r24
 40e:	e3 57       	subi	r30, 0x73	; 115
 410:	fe 4f       	sbci	r31, 0xFE	; 254
 412:	80 81       	ld	r24, Z
 414:	8c b9       	out	0x0c, r24	; 12
 416:	01 c0       	rjmp	.+2      	; 0x41a <__vector_19+0x40>
    } else {
        /* tx buffer empty, disable UDRE interrupt */
        UART0_CONTROL &= ~_BV(UART0_UDRIE);
 418:	55 98       	cbi	0x0a, 5	; 10
    }
}
 41a:	ff 91       	pop	r31
 41c:	ef 91       	pop	r30
 41e:	9f 91       	pop	r25
 420:	8f 91       	pop	r24
 422:	0f 90       	pop	r0
 424:	0b be       	out	0x3b, r0	; 59
 426:	0f 90       	pop	r0
 428:	0f be       	out	0x3f, r0	; 63
 42a:	0f 90       	pop	r0
 42c:	1f 90       	pop	r1
 42e:	18 95       	reti

00000430 <uart0_init>:
Input:    baudrate using macro UART_BAUD_SELECT()
Returns:  none
**************************************************************************/
void uart0_init(uint16_t baudrate)
{
	UART_TxHead = 0;
 430:	10 92 0c 01 	sts	0x010C, r1
	UART_TxTail = 0;
 434:	10 92 0b 01 	sts	0x010B, r1
	UART_RxHead = 0;
 438:	10 92 0a 01 	sts	0x010A, r1
	UART_RxTail = 0;
 43c:	10 92 09 01 	sts	0x0109, r1
	UCSRC = (3<<UCSZ0);
#endif

#elif defined ( ATMEGA_USART0 )
	/* Set baud rate */
	if ( baudrate & 0x8000 ) {
 440:	99 23       	and	r25, r25
 442:	1c f4       	brge	.+6      	; 0x44a <uart0_init+0x1a>
		UART0_STATUS = (1<<U2X0);  //Enable 2x speed
 444:	22 e0       	ldi	r18, 0x02	; 2
 446:	2b b9       	out	0x0b, r18	; 11
		baudrate &= ~0x8000;
 448:	9f 77       	andi	r25, 0x7F	; 127
	}
	UBRR0H = (uint8_t)(baudrate>>8);
 44a:	90 93 90 00 	sts	0x0090, r25
	UBRR0L = (uint8_t) baudrate;
 44e:	89 b9       	out	0x09, r24	; 9

	/* Enable USART receiver and transmitter and receive complete interrupt */
	UART0_CONTROL = _BV(RXCIE0)|(1<<RXEN0)|(1<<TXEN0);
 450:	88 e9       	ldi	r24, 0x98	; 152
 452:	8a b9       	out	0x0a, r24	; 10

	/* Set frame format: asynchronous, 8data, no parity, 1stop bit */
#ifdef URSEL0
	UCSR0C = (1<<URSEL0)|(3<<UCSZ00);
#else
	UCSR0C = (3<<UCSZ00);
 454:	86 e0       	ldi	r24, 0x06	; 6
 456:	80 93 95 00 	sts	0x0095, r24
 45a:	08 95       	ret

0000045c <_exit>:
 45c:	f8 94       	cli

0000045e <__stop_program>:
 45e:	ff cf       	rjmp	.-2      	; 0x45e <__stop_program>
