:1000000045C0000053C0000051C000004FC00000B8
:100010004DC000004BC0000049C0000047C00000B8
:1000200045C0000043C0000041C000003FC00000C8
:100030003DC000003BC0000039C0000037C00000D8
:1000400035C0000033C000006AC000009FC000003F
:100050002DC000002BC0000029C0000027C00000F8
:1000600025C0000023C0000021C000001FC0000008
:100070001DC000001BC0000019C0000017C0000018
:1000800015C0000013C0000011C0000011241FBEE5
:10009000CFEFD0E1DEBFCDBF22E0A0E0B1E001C0F4
:1000A0001D92A530B207E1F724D091C1A9CFBF9A24
:1000B000E1E6F0E080818E7F8083089586B18660DE
:1000C00086B93E9A379A369A089597B1907F97B934
:1000D00097B1892B87B9369A3699FECF24B135B1BD
:1000E000822F932F089581E785BD13BC089583BDAA
:1000F0000895DDDFE3DFF7DF83E390E072D07894EB
:1001000080E0E3DF9695879596958795BC0180E022
:1001100090E0AED013D17BD0CB01E9DFF1CF1F92BD
:100120000F920FB60F9211240BB60F922F933F939D
:100130004F935F938F939F93EF93FF934BB15CB17A
:1001400048718091020190E001968F779927209164
:10015000010130E02817390739F080930201FC01D2
:10016000EB5FFE4F508301C042E040930001FF91DE
:10017000EF919F918F915F914F913F912F910F90B0
:100180000BBE0F900FBE0F901F9018951F920F92ED
:100190000FB60F9211240BB60F928F939F93EF938C
:1001A000FF939091040180910301981771F0809161
:1001B000030190E001968F77992780930301FC015A
:1001C000EB57FE4F80818CB901C05598FF91EF919C
:1001D0009F918F910F900BBE0F900FBE0F901F90AD
:1001E00018951092040110920301109202011092CE
:1001F000010199231CF422E02BB99F779093900082
:1002000089B988E98AB986E080939500089504D079
:100210006894B1118DC0089570D088F09F5790F008
:10022000B92F9927B751A0F0D1F0660F771F881F1B
:10023000991F1AF0BA95C9F712C0B13081F077D082
:10024000B1E0089574C0672F782F8827B85F39F020
:10025000B93FCCF3869577956795B395D9F73EF47A
:1002600090958095709561957F4F8F4F9F4F089522
:10027000E89409C097FB3EF4909580957095619540
:100280007F4F8F4F9F4F9923A9F0F92F96E9BB27F6
:100290009395F695879577956795B795F111F8CF72
:1002A000FAF4BB0F11F460FF1BC06F5F7F4F8F4FDD
:1002B0009F4F16C0882311F096E911C0772321F0D3
:1002C0009EE8872F762F05C0662371F096E8862F6B
:1002D00070E060E02AF09A95660F771F881FDAF7C2
:1002E000880F9695879597F9089557FD9058440F74
:1002F000551F59F05F3F71F04795880F97FB991F85
:1003000061F09F3F79F08795089512161306140641
:10031000551FF2CF4695F1DF08C0161617061806CE
:10032000991FF1CF86957105610508940895E894A9
:10033000BB2766277727CB0197F90895DEDFE0F02A
:100340009E37D8F09639B8F49E3848F4672F782F46
:100350008827985FF9CF8695779567959395953916
:10036000D0F3B62FB1706B0F711D811D20F48795EE
:1003700077956795939502C01CC0DACF882371F4F6
:10038000772321F09850872B762F07C0662311F42E
:1003900099270DC09051862B70E060E02AF09A9565
:1003A000660F771F881FDAF7880F9695879597F95C
:1003B00008959F3F31F0915020F487957795679588
:1003C000B795880F911D9695879597F90895F8949C
:0203D000FFCF5D
:00000001FF
