
adc_pwm_uart_pedal.elf:     file format elf32-avr

Sections:
Idx Name          Size      VMA       LMA       File off  Algn
  0 .data         00000000  00800100  000003d2  00000466  2**0
                  CONTENTS, ALLOC, LOAD, DATA
  1 .text         000003d2  00000000  00000000  00000094  2**1
                  CONTENTS, ALLOC, LOAD, READONLY, CODE
  2 .bss          00000105  00800100  00800100  00000466  2**0
                  ALLOC
  3 .stab         000012fc  00000000  00000000  00000468  2**2
                  CONTENTS, READONLY, DEBUGGING
  4 .stabstr      0000043e  00000000  00000000  00001764  2**0
                  CONTENTS, READONLY, DEBUGGING
  5 .comment      0000002f  00000000  00000000  00001ba2  2**0
                  CONTENTS, READONLY
  6 .debug_aranges 000000b0  00000000  00000000  00001bd1  2**0
                  CONTENTS, READONLY, DEBUGGING
  7 .debug_info   0000054f  00000000  00000000  00001c81  2**0
                  CONTENTS, READONLY, DEBUGGING
  8 .debug_abbrev 00000275  00000000  00000000  000021d0  2**0
                  CONTENTS, READONLY, DEBUGGING
  9 .debug_line   000004ed  00000000  00000000  00002445  2**0
                  CONTENTS, READONLY, DEBUGGING
 10 .debug_frame  00000194  00000000  00000000  00002934  2**2
                  CONTENTS, READONLY, DEBUGGING
 11 .debug_str    00000242  00000000  00000000  00002ac8  2**0
                  CONTENTS, READONLY, DEBUGGING
 12 .debug_loc    00000384  00000000  00000000  00002d0a  2**0
                  CONTENTS, READONLY, DEBUGGING
 13 .debug_ranges 000000a8  00000000  00000000  0000308e  2**0
                  CONTENTS, READONLY, DEBUGGING

Disassembly of section .text:

00000000 <__vectors>:
   0:	45 c0       	rjmp	.+138    	; 0x8c <__ctors_end>
   2:	00 00       	nop
   4:	53 c0       	rjmp	.+166    	; 0xac <__bad_interrupt>
   6:	00 00       	nop
   8:	51 c0       	rjmp	.+162    	; 0xac <__bad_interrupt>
   a:	00 00       	nop
   c:	4f c0       	rjmp	.+158    	; 0xac <__bad_interrupt>
   e:	00 00       	nop
  10:	4d c0       	rjmp	.+154    	; 0xac <__bad_interrupt>
  12:	00 00       	nop
  14:	4b c0       	rjmp	.+150    	; 0xac <__bad_interrupt>
  16:	00 00       	nop
  18:	49 c0       	rjmp	.+146    	; 0xac <__bad_interrupt>
  1a:	00 00       	nop
  1c:	47 c0       	rjmp	.+142    	; 0xac <__bad_interrupt>
  1e:	00 00       	nop
  20:	45 c0       	rjmp	.+138    	; 0xac <__bad_interrupt>
  22:	00 00       	nop
  24:	43 c0       	rjmp	.+134    	; 0xac <__bad_interrupt>
  26:	00 00       	nop
  28:	41 c0       	rjmp	.+130    	; 0xac <__bad_interrupt>
  2a:	00 00       	nop
  2c:	3f c0       	rjmp	.+126    	; 0xac <__bad_interrupt>
  2e:	00 00       	nop
  30:	3d c0       	rjmp	.+122    	; 0xac <__bad_interrupt>
  32:	00 00       	nop
  34:	3b c0       	rjmp	.+118    	; 0xac <__bad_interrupt>
  36:	00 00       	nop
  38:	39 c0       	rjmp	.+114    	; 0xac <__bad_interrupt>
  3a:	00 00       	nop
  3c:	37 c0       	rjmp	.+110    	; 0xac <__bad_interrupt>
  3e:	00 00       	nop
  40:	35 c0       	rjmp	.+106    	; 0xac <__bad_interrupt>
  42:	00 00       	nop
  44:	33 c0       	rjmp	.+102    	; 0xac <__bad_interrupt>
  46:	00 00       	nop
  48:	6a c0       	rjmp	.+212    	; 0x11e <__vector_18>
  4a:	00 00       	nop
  4c:	9f c0       	rjmp	.+318    	; 0x18c <__vector_19>
  4e:	00 00       	nop
  50:	2d c0       	rjmp	.+90     	; 0xac <__bad_interrupt>
  52:	00 00       	nop
  54:	2b c0       	rjmp	.+86     	; 0xac <__bad_interrupt>
  56:	00 00       	nop
  58:	29 c0       	rjmp	.+82     	; 0xac <__bad_interrupt>
  5a:	00 00       	nop
  5c:	27 c0       	rjmp	.+78     	; 0xac <__bad_interrupt>
  5e:	00 00       	nop
  60:	25 c0       	rjmp	.+74     	; 0xac <__bad_interrupt>
  62:	00 00       	nop
  64:	23 c0       	rjmp	.+70     	; 0xac <__bad_interrupt>
  66:	00 00       	nop
  68:	21 c0       	rjmp	.+66     	; 0xac <__bad_interrupt>
  6a:	00 00       	nop
  6c:	1f c0       	rjmp	.+62     	; 0xac <__bad_interrupt>
  6e:	00 00       	nop
  70:	1d c0       	rjmp	.+58     	; 0xac <__bad_interrupt>
  72:	00 00       	nop
  74:	1b c0       	rjmp	.+54     	; 0xac <__bad_interrupt>
  76:	00 00       	nop
  78:	19 c0       	rjmp	.+50     	; 0xac <__bad_interrupt>
  7a:	00 00       	nop
  7c:	17 c0       	rjmp	.+46     	; 0xac <__bad_interrupt>
  7e:	00 00       	nop
  80:	15 c0       	rjmp	.+42     	; 0xac <__bad_interrupt>
  82:	00 00       	nop
  84:	13 c0       	rjmp	.+38     	; 0xac <__bad_interrupt>
  86:	00 00       	nop
  88:	11 c0       	rjmp	.+34     	; 0xac <__bad_interrupt>
	...

0000008c <__ctors_end>:
  8c:	11 24       	eor	r1, r1
  8e:	1f be       	out	0x3f, r1	; 63
  90:	cf ef       	ldi	r28, 0xFF	; 255
  92:	d0 e1       	ldi	r29, 0x10	; 16
  94:	de bf       	out	0x3e, r29	; 62
  96:	cd bf       	out	0x3d, r28	; 61

00000098 <__do_clear_bss>:
  98:	22 e0       	ldi	r18, 0x02	; 2
  9a:	a0 e0       	ldi	r26, 0x00	; 0
  9c:	b1 e0       	ldi	r27, 0x01	; 1
  9e:	01 c0       	rjmp	.+2      	; 0xa2 <.do_clear_bss_start>

000000a0 <.do_clear_bss_loop>:
  a0:	1d 92       	st	X+, r1

000000a2 <.do_clear_bss_start>:
  a2:	a5 30       	cpi	r26, 0x05	; 5
  a4:	b2 07       	cpc	r27, r18
  a6:	e1 f7       	brne	.-8      	; 0xa0 <.do_clear_bss_loop>
  a8:	24 d0       	rcall	.+72     	; 0xf2 <main>
  aa:	91 c1       	rjmp	.+802    	; 0x3ce <_exit>

000000ac <__bad_interrupt>:
  ac:	a9 cf       	rjmp	.-174    	; 0x0 <__vectors>

000000ae <init_io>:
#include <util/delay.h>
#include <uart.h>
#include <math.h>

void init_io(void) {
	DDRB |= 1 << PIN_PWM; // set pin pwm like output.
  ae:	bf 9a       	sbi	0x17, 7	; 23
	DDRF &= ~(1 << PIN_ADC); // set pin ADC like input.
  b0:	e1 e6       	ldi	r30, 0x61	; 97
  b2:	f0 e0       	ldi	r31, 0x00	; 0
  b4:	80 81       	ld	r24, Z
  b6:	8e 7f       	andi	r24, 0xFE	; 254
  b8:	80 83       	st	Z, r24
  ba:	08 95       	ret

000000bc <init_adc>:
}

void init_adc(void) {
	ADCSRA |= ((1<<ADPS2)|(1<<ADPS1));  // (ADCSRA - ADC Control and Status Register A) 8Mhz/64 = 125Khz the ADC reference clock
  bc:	86 b1       	in	r24, 0x06	; 6
  be:	86 60       	ori	r24, 0x06	; 6
  c0:	86 b9       	out	0x06, r24	; 6
	ADMUX |= (1<<REFS0);                // (ADC Multiplexer Selection Register) Voltage reference from Avcc (5v) (Don't forgot to connect Vcc to AREF pin - the threshold level of voltage. )
  c2:	3e 9a       	sbi	0x07, 6	; 7
	ADCSRA |= (1<<ADEN);                // Turn on ADC
  c4:	37 9a       	sbi	0x06, 7	; 6
	ADCSRA |= (1<<ADSC);                // Do an initial conversion because this one is the slowest and to ensure that everything is up and running
  c6:	36 9a       	sbi	0x06, 6	; 6
  c8:	08 95       	ret

000000ca <read_adc>:
}

uint16_t read_adc(uint8_t channel) {
	ADMUX &= 0xF0;                   // (0b1111 0000) Clear the older channel that was read
  ca:	97 b1       	in	r25, 0x07	; 7
  cc:	90 7f       	andi	r25, 0xF0	; 240
  ce:	97 b9       	out	0x07, r25	; 7
	ADMUX |= channel;                // Defines the new ADC channel to be read
  d0:	97 b1       	in	r25, 0x07	; 7
  d2:	89 2b       	or	r24, r25
  d4:	87 b9       	out	0x07, r24	; 7
	ADCSRA |= (1<<ADSC);             // Starts a new conversion
  d6:	36 9a       	sbi	0x06, 6	; 6
	while(ADCSRA & (1<<ADSC));       // (0b0100 0000 & (0b0100 0000)) Wait until the conversion is done. (In Single Conversion mode, write bit ADSC to one to start each conversion.)
  d8:	36 99       	sbic	0x06, 6	; 6
  da:	fe cf       	rjmp	.-4      	; 0xd8 <read_adc+0xe>
	return ADCW;                   	 // Returns the ADC value of the chosen channe
  dc:	24 b1       	in	r18, 0x04	; 4
  de:	35 b1       	in	r19, 0x05	; 5
}
  e0:	82 2f       	mov	r24, r18
  e2:	93 2f       	mov	r25, r19
  e4:	08 95       	ret

000000e6 <init_pwm>:
 CS22			- clkI/256 = 31250 Hz (From prescaler)
 CS22, CS20		- clkI/1024 = 7812 Hz (From prescaler)
*/
void init_pwm (void)
{
	TCCR2 = 1<<WGM20|1<<COM21|1<<COM20|1<<CS20;
  e6:	81 e7       	ldi	r24, 0x71	; 113
  e8:	85 bd       	out	0x25, r24	; 37
	OCR2 = 0; // initial value on PWM pin output
  ea:	13 bc       	out	0x23, r1	; 35
  ec:	08 95       	ret

000000ee <set_pwm>:
}

void set_pwm(int val) {
	OCR2 = val;
  ee:	83 bd       	out	0x23, r24	; 35
  f0:	08 95       	ret

000000f2 <main>:
int main(void)
{
    //char uart_output[] = "test\n";
	int pwm_value = 0;
	
	init_io();
  f2:	dd df       	rcall	.-70     	; 0xae <init_io>
	init_adc();
  f4:	e3 df       	rcall	.-58     	; 0xbc <init_adc>
	init_pwm();
  f6:	f7 df       	rcall	.-18     	; 0xe6 <init_pwm>
	uart_init(UART_BAUD_SELECT(UART_BAUD_RATE, F_CPU));
  f8:	83 e3       	ldi	r24, 0x33	; 51
  fa:	90 e0       	ldi	r25, 0x00	; 0
  fc:	72 d0       	rcall	.+228    	; 0x1e2 <uart0_init>
	sei(); //enable interrupt, since UART library is interrupt controlled
  fe:	78 94       	sei
	
	while(1) {
		//sprintf(uart_output, "%d\n", (int)round(read_adc(PIN_ADC) / 4));
		//uart_puts(uart_output);
		//_delay_ms(50);
		pwm_value = (int)round(read_adc(PIN_ADC)/4);
 100:	80 e0       	ldi	r24, 0x00	; 0
 102:	e3 df       	rcall	.-58     	; 0xca <read_adc>
 104:	96 95       	lsr	r25
 106:	87 95       	ror	r24
 108:	96 95       	lsr	r25
 10a:	87 95       	ror	r24
 10c:	bc 01       	movw	r22, r24
 10e:	80 e0       	ldi	r24, 0x00	; 0
 110:	90 e0       	ldi	r25, 0x00	; 0
 112:	ae d0       	rcall	.+348    	; 0x270 <__floatunsisf>
 114:	13 d1       	rcall	.+550    	; 0x33c <round>
 116:	7b d0       	rcall	.+246    	; 0x20e <__fixsfsi>
		set_pwm(pwm_value);				
 118:	cb 01       	movw	r24, r22
 11a:	e9 df       	rcall	.-46     	; 0xee <set_pwm>
 11c:	f1 cf       	rjmp	.-30     	; 0x100 <main+0xe>

0000011e <__vector_18>:
ISR(UART0_RECEIVE_INTERRUPT)
/*************************************************************************
Function: UART Receive Complete interrupt
Purpose:  called when the UART has received a character
**************************************************************************/
{
 11e:	1f 92       	push	r1
 120:	0f 92       	push	r0
 122:	0f b6       	in	r0, 0x3f	; 63
 124:	0f 92       	push	r0
 126:	11 24       	eor	r1, r1
 128:	0b b6       	in	r0, 0x3b	; 59
 12a:	0f 92       	push	r0
 12c:	2f 93       	push	r18
 12e:	3f 93       	push	r19
 130:	4f 93       	push	r20
 132:	5f 93       	push	r21
 134:	8f 93       	push	r24
 136:	9f 93       	push	r25
 138:	ef 93       	push	r30
 13a:	ff 93       	push	r31
    uint8_t data;
    uint8_t usr;
    uint8_t lastRxError;
 
    /* read UART status register and UART data register */ 
    usr  = UART0_STATUS;
 13c:	4b b1       	in	r20, 0x0b	; 11
    data = UART0_DATA;
 13e:	5c b1       	in	r21, 0x0c	; 12
#if defined( AT90_UART )
    lastRxError = (usr & (_BV(FE)|_BV(DOR)) );
#elif defined( ATMEGA_USART )
    lastRxError = (usr & (_BV(FE)|_BV(DOR)) );
#elif defined( ATMEGA_USART0 )
    lastRxError = (usr & (_BV(FE0)|_BV(DOR0)) );
 140:	48 71       	andi	r20, 0x18	; 24
#elif defined ( ATMEGA_UART )
    lastRxError = (usr & (_BV(FE)|_BV(DOR)) );
#endif
        
    /* calculate buffer index */ 
    tmphead = ( UART_RxHead + 1) & UART_RX0_BUFFER_MASK;
 142:	80 91 02 01 	lds	r24, 0x0102
 146:	90 e0       	ldi	r25, 0x00	; 0
 148:	01 96       	adiw	r24, 0x01	; 1
 14a:	8f 77       	andi	r24, 0x7F	; 127
 14c:	99 27       	eor	r25, r25
    
    if ( tmphead == UART_RxTail ) {
 14e:	20 91 01 01 	lds	r18, 0x0101
 152:	30 e0       	ldi	r19, 0x00	; 0
 154:	28 17       	cp	r18, r24
 156:	39 07       	cpc	r19, r25
 158:	39 f0       	breq	.+14     	; 0x168 <__vector_18+0x4a>
        /* error: receive buffer overflow */
        lastRxError = UART_BUFFER_OVERFLOW >> 8;
    } else {
        /* store new index */
        UART_RxHead = tmphead;
 15a:	80 93 02 01 	sts	0x0102, r24
        /* store received data in buffer */
        UART_RxBuf[tmphead] = data;
 15e:	fc 01       	movw	r30, r24
 160:	eb 5f       	subi	r30, 0xFB	; 251
 162:	fe 4f       	sbci	r31, 0xFE	; 254
 164:	50 83       	st	Z, r21
 166:	01 c0       	rjmp	.+2      	; 0x16a <__vector_18+0x4c>
    /* calculate buffer index */ 
    tmphead = ( UART_RxHead + 1) & UART_RX0_BUFFER_MASK;
    
    if ( tmphead == UART_RxTail ) {
        /* error: receive buffer overflow */
        lastRxError = UART_BUFFER_OVERFLOW >> 8;
 168:	42 e0       	ldi	r20, 0x02	; 2
        /* store new index */
        UART_RxHead = tmphead;
        /* store received data in buffer */
        UART_RxBuf[tmphead] = data;
    }
    UART_LastRxError = lastRxError;   
 16a:	40 93 00 01 	sts	0x0100, r20
}
 16e:	ff 91       	pop	r31
 170:	ef 91       	pop	r30
 172:	9f 91       	pop	r25
 174:	8f 91       	pop	r24
 176:	5f 91       	pop	r21
 178:	4f 91       	pop	r20
 17a:	3f 91       	pop	r19
 17c:	2f 91       	pop	r18
 17e:	0f 90       	pop	r0
 180:	0b be       	out	0x3b, r0	; 59
 182:	0f 90       	pop	r0
 184:	0f be       	out	0x3f, r0	; 63
 186:	0f 90       	pop	r0
 188:	1f 90       	pop	r1
 18a:	18 95       	reti

0000018c <__vector_19>:
ISR(UART0_TRANSMIT_INTERRUPT)
/*************************************************************************
Function: UART Data Register Empty interrupt
Purpose:  called when the UART is ready to transmit the next byte
**************************************************************************/
{
 18c:	1f 92       	push	r1
 18e:	0f 92       	push	r0
 190:	0f b6       	in	r0, 0x3f	; 63
 192:	0f 92       	push	r0
 194:	11 24       	eor	r1, r1
 196:	0b b6       	in	r0, 0x3b	; 59
 198:	0f 92       	push	r0
 19a:	8f 93       	push	r24
 19c:	9f 93       	push	r25
 19e:	ef 93       	push	r30
 1a0:	ff 93       	push	r31
    uint16_t tmptail;

    if ( UART_TxHead != UART_TxTail) {
 1a2:	90 91 04 01 	lds	r25, 0x0104
 1a6:	80 91 03 01 	lds	r24, 0x0103
 1aa:	98 17       	cp	r25, r24
 1ac:	71 f0       	breq	.+28     	; 0x1ca <__vector_19+0x3e>
        /* calculate and store new buffer index */
        tmptail = (UART_TxTail + 1) & UART_TX0_BUFFER_MASK;
 1ae:	80 91 03 01 	lds	r24, 0x0103
 1b2:	90 e0       	ldi	r25, 0x00	; 0
 1b4:	01 96       	adiw	r24, 0x01	; 1
 1b6:	8f 77       	andi	r24, 0x7F	; 127
 1b8:	99 27       	eor	r25, r25
        UART_TxTail = tmptail;
 1ba:	80 93 03 01 	sts	0x0103, r24
        /* get one byte from buffer and write it to UART */
        UART0_DATA = UART_TxBuf[tmptail];  /* start transmission */
 1be:	fc 01       	movw	r30, r24
 1c0:	eb 57       	subi	r30, 0x7B	; 123
 1c2:	fe 4f       	sbci	r31, 0xFE	; 254
 1c4:	80 81       	ld	r24, Z
 1c6:	8c b9       	out	0x0c, r24	; 12
 1c8:	01 c0       	rjmp	.+2      	; 0x1cc <__vector_19+0x40>
    } else {
        /* tx buffer empty, disable UDRE interrupt */
        UART0_CONTROL &= ~_BV(UART0_UDRIE);
 1ca:	55 98       	cbi	0x0a, 5	; 10
    }
}
 1cc:	ff 91       	pop	r31
 1ce:	ef 91       	pop	r30
 1d0:	9f 91       	pop	r25
 1d2:	8f 91       	pop	r24
 1d4:	0f 90       	pop	r0
 1d6:	0b be       	out	0x3b, r0	; 59
 1d8:	0f 90       	pop	r0
 1da:	0f be       	out	0x3f, r0	; 63
 1dc:	0f 90       	pop	r0
 1de:	1f 90       	pop	r1
 1e0:	18 95       	reti

000001e2 <uart0_init>:
Input:    baudrate using macro UART_BAUD_SELECT()
Returns:  none
**************************************************************************/
void uart0_init(uint16_t baudrate)
{
	UART_TxHead = 0;
 1e2:	10 92 04 01 	sts	0x0104, r1
	UART_TxTail = 0;
 1e6:	10 92 03 01 	sts	0x0103, r1
	UART_RxHead = 0;
 1ea:	10 92 02 01 	sts	0x0102, r1
	UART_RxTail = 0;
 1ee:	10 92 01 01 	sts	0x0101, r1
	UCSRC = (3<<UCSZ0);
#endif

#elif defined ( ATMEGA_USART0 )
	/* Set baud rate */
	if ( baudrate & 0x8000 ) {
 1f2:	99 23       	and	r25, r25
 1f4:	1c f4       	brge	.+6      	; 0x1fc <uart0_init+0x1a>
		UART0_STATUS = (1<<U2X0);  //Enable 2x speed
 1f6:	22 e0       	ldi	r18, 0x02	; 2
 1f8:	2b b9       	out	0x0b, r18	; 11
		baudrate &= ~0x8000;
 1fa:	9f 77       	andi	r25, 0x7F	; 127
	}
	UBRR0H = (uint8_t)(baudrate>>8);
 1fc:	90 93 90 00 	sts	0x0090, r25
	UBRR0L = (uint8_t) baudrate;
 200:	89 b9       	out	0x09, r24	; 9

	/* Enable USART receiver and transmitter and receive complete interrupt */
	UART0_CONTROL = _BV(RXCIE0)|(1<<RXEN0)|(1<<TXEN0);
 202:	88 e9       	ldi	r24, 0x98	; 152
 204:	8a b9       	out	0x0a, r24	; 10

	/* Set frame format: asynchronous, 8data, no parity, 1stop bit */
#ifdef URSEL0
	UCSR0C = (1<<URSEL0)|(3<<UCSZ00);
#else
	UCSR0C = (3<<UCSZ00);
 206:	86 e0       	ldi	r24, 0x06	; 6
 208:	80 93 95 00 	sts	0x0095, r24
 20c:	08 95       	ret

0000020e <__fixsfsi>:
 20e:	04 d0       	rcall	.+8      	; 0x218 <__fixunssfsi>
 210:	68 94       	set
 212:	b1 11       	cpse	r27, r1
 214:	8d c0       	rjmp	.+282    	; 0x330 <__fp_szero>
 216:	08 95       	ret

00000218 <__fixunssfsi>:
 218:	70 d0       	rcall	.+224    	; 0x2fa <__fp_splitA>
 21a:	88 f0       	brcs	.+34     	; 0x23e <__fixunssfsi+0x26>
 21c:	9f 57       	subi	r25, 0x7F	; 127
 21e:	90 f0       	brcs	.+36     	; 0x244 <__fixunssfsi+0x2c>
 220:	b9 2f       	mov	r27, r25
 222:	99 27       	eor	r25, r25
 224:	b7 51       	subi	r27, 0x17	; 23
 226:	a0 f0       	brcs	.+40     	; 0x250 <__fixunssfsi+0x38>
 228:	d1 f0       	breq	.+52     	; 0x25e <__fixunssfsi+0x46>
 22a:	66 0f       	add	r22, r22
 22c:	77 1f       	adc	r23, r23
 22e:	88 1f       	adc	r24, r24
 230:	99 1f       	adc	r25, r25
 232:	1a f0       	brmi	.+6      	; 0x23a <__fixunssfsi+0x22>
 234:	ba 95       	dec	r27
 236:	c9 f7       	brne	.-14     	; 0x22a <__fixunssfsi+0x12>
 238:	12 c0       	rjmp	.+36     	; 0x25e <__fixunssfsi+0x46>
 23a:	b1 30       	cpi	r27, 0x01	; 1
 23c:	81 f0       	breq	.+32     	; 0x25e <__fixunssfsi+0x46>
 23e:	77 d0       	rcall	.+238    	; 0x32e <__fp_zero>
 240:	b1 e0       	ldi	r27, 0x01	; 1
 242:	08 95       	ret
 244:	74 c0       	rjmp	.+232    	; 0x32e <__fp_zero>
 246:	67 2f       	mov	r22, r23
 248:	78 2f       	mov	r23, r24
 24a:	88 27       	eor	r24, r24
 24c:	b8 5f       	subi	r27, 0xF8	; 248
 24e:	39 f0       	breq	.+14     	; 0x25e <__fixunssfsi+0x46>
 250:	b9 3f       	cpi	r27, 0xF9	; 249
 252:	cc f3       	brlt	.-14     	; 0x246 <__fixunssfsi+0x2e>
 254:	86 95       	lsr	r24
 256:	77 95       	ror	r23
 258:	67 95       	ror	r22
 25a:	b3 95       	inc	r27
 25c:	d9 f7       	brne	.-10     	; 0x254 <__fixunssfsi+0x3c>
 25e:	3e f4       	brtc	.+14     	; 0x26e <__fixunssfsi+0x56>
 260:	90 95       	com	r25
 262:	80 95       	com	r24
 264:	70 95       	com	r23
 266:	61 95       	neg	r22
 268:	7f 4f       	sbci	r23, 0xFF	; 255
 26a:	8f 4f       	sbci	r24, 0xFF	; 255
 26c:	9f 4f       	sbci	r25, 0xFF	; 255
 26e:	08 95       	ret

00000270 <__floatunsisf>:
 270:	e8 94       	clt
 272:	09 c0       	rjmp	.+18     	; 0x286 <__floatsisf+0x12>

00000274 <__floatsisf>:
 274:	97 fb       	bst	r25, 7
 276:	3e f4       	brtc	.+14     	; 0x286 <__floatsisf+0x12>
 278:	90 95       	com	r25
 27a:	80 95       	com	r24
 27c:	70 95       	com	r23
 27e:	61 95       	neg	r22
 280:	7f 4f       	sbci	r23, 0xFF	; 255
 282:	8f 4f       	sbci	r24, 0xFF	; 255
 284:	9f 4f       	sbci	r25, 0xFF	; 255
 286:	99 23       	and	r25, r25
 288:	a9 f0       	breq	.+42     	; 0x2b4 <__floatsisf+0x40>
 28a:	f9 2f       	mov	r31, r25
 28c:	96 e9       	ldi	r25, 0x96	; 150
 28e:	bb 27       	eor	r27, r27
 290:	93 95       	inc	r25
 292:	f6 95       	lsr	r31
 294:	87 95       	ror	r24
 296:	77 95       	ror	r23
 298:	67 95       	ror	r22
 29a:	b7 95       	ror	r27
 29c:	f1 11       	cpse	r31, r1
 29e:	f8 cf       	rjmp	.-16     	; 0x290 <__floatsisf+0x1c>
 2a0:	fa f4       	brpl	.+62     	; 0x2e0 <__floatsisf+0x6c>
 2a2:	bb 0f       	add	r27, r27
 2a4:	11 f4       	brne	.+4      	; 0x2aa <__floatsisf+0x36>
 2a6:	60 ff       	sbrs	r22, 0
 2a8:	1b c0       	rjmp	.+54     	; 0x2e0 <__floatsisf+0x6c>
 2aa:	6f 5f       	subi	r22, 0xFF	; 255
 2ac:	7f 4f       	sbci	r23, 0xFF	; 255
 2ae:	8f 4f       	sbci	r24, 0xFF	; 255
 2b0:	9f 4f       	sbci	r25, 0xFF	; 255
 2b2:	16 c0       	rjmp	.+44     	; 0x2e0 <__floatsisf+0x6c>
 2b4:	88 23       	and	r24, r24
 2b6:	11 f0       	breq	.+4      	; 0x2bc <__floatsisf+0x48>
 2b8:	96 e9       	ldi	r25, 0x96	; 150
 2ba:	11 c0       	rjmp	.+34     	; 0x2de <__floatsisf+0x6a>
 2bc:	77 23       	and	r23, r23
 2be:	21 f0       	breq	.+8      	; 0x2c8 <__floatsisf+0x54>
 2c0:	9e e8       	ldi	r25, 0x8E	; 142
 2c2:	87 2f       	mov	r24, r23
 2c4:	76 2f       	mov	r23, r22
 2c6:	05 c0       	rjmp	.+10     	; 0x2d2 <__floatsisf+0x5e>
 2c8:	66 23       	and	r22, r22
 2ca:	71 f0       	breq	.+28     	; 0x2e8 <__floatsisf+0x74>
 2cc:	96 e8       	ldi	r25, 0x86	; 134
 2ce:	86 2f       	mov	r24, r22
 2d0:	70 e0       	ldi	r23, 0x00	; 0
 2d2:	60 e0       	ldi	r22, 0x00	; 0
 2d4:	2a f0       	brmi	.+10     	; 0x2e0 <__floatsisf+0x6c>
 2d6:	9a 95       	dec	r25
 2d8:	66 0f       	add	r22, r22
 2da:	77 1f       	adc	r23, r23
 2dc:	88 1f       	adc	r24, r24
 2de:	da f7       	brpl	.-10     	; 0x2d6 <__floatsisf+0x62>
 2e0:	88 0f       	add	r24, r24
 2e2:	96 95       	lsr	r25
 2e4:	87 95       	ror	r24
 2e6:	97 f9       	bld	r25, 7
 2e8:	08 95       	ret

000002ea <__fp_split3>:
 2ea:	57 fd       	sbrc	r21, 7
 2ec:	90 58       	subi	r25, 0x80	; 128
 2ee:	44 0f       	add	r20, r20
 2f0:	55 1f       	adc	r21, r21
 2f2:	59 f0       	breq	.+22     	; 0x30a <__fp_splitA+0x10>
 2f4:	5f 3f       	cpi	r21, 0xFF	; 255
 2f6:	71 f0       	breq	.+28     	; 0x314 <__fp_splitA+0x1a>
 2f8:	47 95       	ror	r20

000002fa <__fp_splitA>:
 2fa:	88 0f       	add	r24, r24
 2fc:	97 fb       	bst	r25, 7
 2fe:	99 1f       	adc	r25, r25
 300:	61 f0       	breq	.+24     	; 0x31a <__fp_splitA+0x20>
 302:	9f 3f       	cpi	r25, 0xFF	; 255
 304:	79 f0       	breq	.+30     	; 0x324 <__fp_splitA+0x2a>
 306:	87 95       	ror	r24
 308:	08 95       	ret
 30a:	12 16       	cp	r1, r18
 30c:	13 06       	cpc	r1, r19
 30e:	14 06       	cpc	r1, r20
 310:	55 1f       	adc	r21, r21
 312:	f2 cf       	rjmp	.-28     	; 0x2f8 <__fp_split3+0xe>
 314:	46 95       	lsr	r20
 316:	f1 df       	rcall	.-30     	; 0x2fa <__fp_splitA>
 318:	08 c0       	rjmp	.+16     	; 0x32a <__fp_splitA+0x30>
 31a:	16 16       	cp	r1, r22
 31c:	17 06       	cpc	r1, r23
 31e:	18 06       	cpc	r1, r24
 320:	99 1f       	adc	r25, r25
 322:	f1 cf       	rjmp	.-30     	; 0x306 <__fp_splitA+0xc>
 324:	86 95       	lsr	r24
 326:	71 05       	cpc	r23, r1
 328:	61 05       	cpc	r22, r1
 32a:	08 94       	sec
 32c:	08 95       	ret

0000032e <__fp_zero>:
 32e:	e8 94       	clt

00000330 <__fp_szero>:
 330:	bb 27       	eor	r27, r27
 332:	66 27       	eor	r22, r22
 334:	77 27       	eor	r23, r23
 336:	cb 01       	movw	r24, r22
 338:	97 f9       	bld	r25, 7
 33a:	08 95       	ret

0000033c <round>:
 33c:	de df       	rcall	.-68     	; 0x2fa <__fp_splitA>
 33e:	e0 f0       	brcs	.+56     	; 0x378 <round+0x3c>
 340:	9e 37       	cpi	r25, 0x7E	; 126
 342:	d8 f0       	brcs	.+54     	; 0x37a <round+0x3e>
 344:	96 39       	cpi	r25, 0x96	; 150
 346:	b8 f4       	brcc	.+46     	; 0x376 <round+0x3a>
 348:	9e 38       	cpi	r25, 0x8E	; 142
 34a:	48 f4       	brcc	.+18     	; 0x35e <round+0x22>
 34c:	67 2f       	mov	r22, r23
 34e:	78 2f       	mov	r23, r24
 350:	88 27       	eor	r24, r24
 352:	98 5f       	subi	r25, 0xF8	; 248
 354:	f9 cf       	rjmp	.-14     	; 0x348 <round+0xc>
 356:	86 95       	lsr	r24
 358:	77 95       	ror	r23
 35a:	67 95       	ror	r22
 35c:	93 95       	inc	r25
 35e:	95 39       	cpi	r25, 0x95	; 149
 360:	d0 f3       	brcs	.-12     	; 0x356 <round+0x1a>
 362:	b6 2f       	mov	r27, r22
 364:	b1 70       	andi	r27, 0x01	; 1
 366:	6b 0f       	add	r22, r27
 368:	71 1d       	adc	r23, r1
 36a:	81 1d       	adc	r24, r1
 36c:	20 f4       	brcc	.+8      	; 0x376 <round+0x3a>
 36e:	87 95       	ror	r24
 370:	77 95       	ror	r23
 372:	67 95       	ror	r22
 374:	93 95       	inc	r25
 376:	02 c0       	rjmp	.+4      	; 0x37c <__fp_mintl>
 378:	1c c0       	rjmp	.+56     	; 0x3b2 <__fp_mpack>
 37a:	da cf       	rjmp	.-76     	; 0x330 <__fp_szero>

0000037c <__fp_mintl>:
 37c:	88 23       	and	r24, r24
 37e:	71 f4       	brne	.+28     	; 0x39c <__fp_mintl+0x20>
 380:	77 23       	and	r23, r23
 382:	21 f0       	breq	.+8      	; 0x38c <__fp_mintl+0x10>
 384:	98 50       	subi	r25, 0x08	; 8
 386:	87 2b       	or	r24, r23
 388:	76 2f       	mov	r23, r22
 38a:	07 c0       	rjmp	.+14     	; 0x39a <__fp_mintl+0x1e>
 38c:	66 23       	and	r22, r22
 38e:	11 f4       	brne	.+4      	; 0x394 <__fp_mintl+0x18>
 390:	99 27       	eor	r25, r25
 392:	0d c0       	rjmp	.+26     	; 0x3ae <__fp_mintl+0x32>
 394:	90 51       	subi	r25, 0x10	; 16
 396:	86 2b       	or	r24, r22
 398:	70 e0       	ldi	r23, 0x00	; 0
 39a:	60 e0       	ldi	r22, 0x00	; 0
 39c:	2a f0       	brmi	.+10     	; 0x3a8 <__fp_mintl+0x2c>
 39e:	9a 95       	dec	r25
 3a0:	66 0f       	add	r22, r22
 3a2:	77 1f       	adc	r23, r23
 3a4:	88 1f       	adc	r24, r24
 3a6:	da f7       	brpl	.-10     	; 0x39e <__fp_mintl+0x22>
 3a8:	88 0f       	add	r24, r24
 3aa:	96 95       	lsr	r25
 3ac:	87 95       	ror	r24
 3ae:	97 f9       	bld	r25, 7
 3b0:	08 95       	ret

000003b2 <__fp_mpack>:
 3b2:	9f 3f       	cpi	r25, 0xFF	; 255
 3b4:	31 f0       	breq	.+12     	; 0x3c2 <__fp_mpack_finite+0xc>

000003b6 <__fp_mpack_finite>:
 3b6:	91 50       	subi	r25, 0x01	; 1
 3b8:	20 f4       	brcc	.+8      	; 0x3c2 <__fp_mpack_finite+0xc>
 3ba:	87 95       	ror	r24
 3bc:	77 95       	ror	r23
 3be:	67 95       	ror	r22
 3c0:	b7 95       	ror	r27
 3c2:	88 0f       	add	r24, r24
 3c4:	91 1d       	adc	r25, r1
 3c6:	96 95       	lsr	r25
 3c8:	87 95       	ror	r24
 3ca:	97 f9       	bld	r25, 7
 3cc:	08 95       	ret

000003ce <_exit>:
 3ce:	f8 94       	cli

000003d0 <__stop_program>:
 3d0:	ff cf       	rjmp	.-2      	; 0x3d0 <__stop_program>
