
watering.elf:     file format elf32-avr

Sections:
Idx Name          Size      VMA       LMA       File off  Algn
  0 .text         00000b80  00000000  00000000  00000074  2**1
                  CONTENTS, ALLOC, LOAD, READONLY, CODE
  1 .data         00000000  00800060  00000b80  00000bf4  2**0
                  CONTENTS, ALLOC, LOAD, DATA
  2 .comment      0000005c  00000000  00000000  00000bf4  2**0
                  CONTENTS, READONLY
  3 .debug_aranges 000000a8  00000000  00000000  00000c50  2**0
                  CONTENTS, READONLY, DEBUGGING
  4 .debug_info   000006e0  00000000  00000000  00000cf8  2**0
                  CONTENTS, READONLY, DEBUGGING
  5 .debug_abbrev 00000307  00000000  00000000  000013d8  2**0
                  CONTENTS, READONLY, DEBUGGING
  6 .debug_line   000003ca  00000000  00000000  000016df  2**0
                  CONTENTS, READONLY, DEBUGGING
  7 .debug_frame  00000158  00000000  00000000  00001aac  2**2
                  CONTENTS, READONLY, DEBUGGING
  8 .debug_str    00000284  00000000  00000000  00001c04  2**0
                  CONTENTS, READONLY, DEBUGGING
  9 .debug_loc    00000519  00000000  00000000  00001e88  2**0
                  CONTENTS, READONLY, DEBUGGING
 10 .debug_ranges 000000a0  00000000  00000000  000023a1  2**0
                  CONTENTS, READONLY, DEBUGGING

Disassembly of section .text:

00000000 <__vectors>:
                   LCD_DISP_ON_CURSOR      display on, cursor on
                   LCD_DISP_CURSOR_BLINK   display on, cursor on flashing
Returns:  none
*************************************************************************/
void lcd_init(uint8_t dispAttr)
{
   0:	93 c0       	rjmp	.+294    	; 0x128 <__ctors_end>
   2:	9a c0       	rjmp	.+308    	; 0x138 <__bad_interrupt>
        DDR(LCD_E_PORT)     |= _BV(LCD_E_PIN);
    }
    else
    {
        /* configure all port bits as output (LCD data and control lines on different ports */
        DDR(LCD_RS_PORT)    |= _BV(LCD_RS_PIN);
   4:	99 c0       	rjmp	.+306    	; 0x138 <__bad_interrupt>
        DDR(LCD_RW_PORT)    |= _BV(LCD_RW_PIN);
   6:	98 c0       	rjmp	.+304    	; 0x138 <__bad_interrupt>
        DDR(LCD_E_PORT)     |= _BV(LCD_E_PIN);
   8:	97 c0       	rjmp	.+302    	; 0x138 <__bad_interrupt>
        DDR(LCD_DATA0_PORT) |= _BV(LCD_DATA0_PIN);
   a:	96 c0       	rjmp	.+300    	; 0x138 <__bad_interrupt>
        DDR(LCD_DATA1_PORT) |= _BV(LCD_DATA1_PIN);
   c:	95 c0       	rjmp	.+298    	; 0x138 <__bad_interrupt>
        DDR(LCD_DATA2_PORT) |= _BV(LCD_DATA2_PIN);
   e:	94 c0       	rjmp	.+296    	; 0x138 <__bad_interrupt>
        DDR(LCD_DATA3_PORT) |= _BV(LCD_DATA3_PIN);
  10:	93 c0       	rjmp	.+294    	; 0x138 <__bad_interrupt>
static inline void _delayFourCycles(unsigned int __count)
{
    if ( __count == 0 )    
        __asm__ __volatile__( "rjmp 1f\n 1:" );    // 2 cycles
    else
        __asm__ __volatile__ (
  12:	92 c0       	rjmp	.+292    	; 0x138 <__bad_interrupt>
  14:	91 c0       	rjmp	.+290    	; 0x138 <__bad_interrupt>
  16:	90 c0       	rjmp	.+288    	; 0x138 <__bad_interrupt>
  18:	8f c0       	rjmp	.+286    	; 0x138 <__bad_interrupt>
        DDR(LCD_DATA3_PORT) |= _BV(LCD_DATA3_PIN);
    }
    delay(16000);        /* wait 16ms or more after power-on       */
    
    /* initial write to lcd is 8bit */
    LCD_DATA1_PORT |= _BV(LCD_DATA1_PIN);  // _BV(LCD_FUNCTION)>>4;
  1a:	8e c0       	rjmp	.+284    	; 0x138 <__bad_interrupt>
    LCD_DATA0_PORT |= _BV(LCD_DATA0_PIN);  // _BV(LCD_FUNCTION_8BIT)>>4;
  1c:	8d c0       	rjmp	.+282    	; 0x138 <__bad_interrupt>
    lcd_e_toggle();
  1e:	8c c0       	rjmp	.+280    	; 0x138 <__bad_interrupt>
static inline void _delayFourCycles(unsigned int __count)
{
    if ( __count == 0 )    
        __asm__ __volatile__( "rjmp 1f\n 1:" );    // 2 cycles
    else
        __asm__ __volatile__ (
  20:	8b c0       	rjmp	.+278    	; 0x138 <__bad_interrupt>
  22:	8a c0       	rjmp	.+276    	; 0x138 <__bad_interrupt>
  24:	89 c0       	rjmp	.+274    	; 0x138 <__bad_interrupt>

00000026 <__trampolines_end>:
  26:	6e 61       	ori	r22, 0x1E	; 30
    LCD_DATA0_PORT |= _BV(LCD_DATA0_PIN);  // _BV(LCD_FUNCTION_8BIT)>>4;
    lcd_e_toggle();
    delay(4992);         /* delay, busy flag can't be checked here */
   
    /* repeat last command */ 
    lcd_e_toggle();      
  28:	6e 00       	.word	0x006e	; ????

0000002a <__c.2159>:
static inline void _delayFourCycles(unsigned int __count)
{
    if ( __count == 0 )    
        __asm__ __volatile__( "rjmp 1f\n 1:" );    // 2 cycles
    else
        __asm__ __volatile__ (
  2a:	69 6e 66 00 00 40 7a 10 f3 5a 00 a0 72 4e 18 09     inf..@z..Z..rN..
  3a:	00 10 a5 d4 e8 00 00 e8 76 48 17 00 00 e4 0b 54     ........vH.....T
    /* Display with KS0073 controller requires special commands for enabling 4 line mode */
	lcd_command(KS0073_EXTENDED_FUNCTION_REGISTER_ON);
	lcd_command(KS0073_4LINES_MODE);
	lcd_command(KS0073_EXTENDED_FUNCTION_REGISTER_OFF);
#else
    lcd_command(LCD_FUNCTION_DEFAULT);      /* function set: display lines  */
  4a:	02 00 00 ca 9a 3b 00 00 00 e1 f5 05 00 00 80 96     .....;..........
    lcd_command(LCD_DISP_OFF);              /* display off                  */
    lcd_clrscr();                           /* display clear                */ 
    lcd_command(LCD_MODE_DEFAULT);          /* set entry mode               */
    lcd_command(dispAttr);                  /* display/cursor control       */

}/* lcd_init */
  5a:	98 00 00 00 40 42 0f 00 00 00 a0 86 01 00 00 00     ....@B..........
  6a:	10 27 00 00 00 00 e8 03 00 00 00 00 64 00 00 00     .'..........d...
  7a:	00 00 0a 00 00 00 00 00 01 00 00 00 00 00 2c 76     ..............,v
  8a:	d8 88 dc 67 4f 08 23 df c1 df ae 59 e1 b1 b7 96     ...gO.#....Y....
  9a:	e5 e3 e4 53 c6 3a e6 51 99 76 96 e8 e6 c2 84 26     ...S.:.Q.v.....&
  aa:	eb 89 8c 9b 62 ed 40 7c 6f fc ef bc 9c 9f 40 f2     ....b.@|o.....@.
  ba:	ba a5 6f a5 f4 90 05 5a 2a f7 5c 93 6b 6c f9 67     ..o....Z*.\.kl.g
  ca:	6d c1 1b fc e0 e4 0d 47 fe f5 20 e6 b5 00 d0 ed     m......G.. .....
  da:	90 2e 03 00 94 35 77 05 00 80 84 1e 08 00 00 20     .....5w........ 
  ea:	4e 0a 00 00 00 c8 0c 33 33 33 33 0f 98 6e 12 83     N......3333..n..
  fa:	11 41 ef 8d 21 14 89 3b e6 55 16 cf fe e6 db 18     .A..!..;.U......
 10a:	d1 84 4b 38 1b f7 7c 1d 90 1d a4 bb e4 24 20 32     ..K8..|......$ 2
 11a:	84 72 5e 22 81 00 c9 f1 24 ec a1 e5 3d 27           .r^"....$...='

00000128 <__ctors_end>:
 128:	11 24       	eor	r1, r1
 12a:	1f be       	out	0x3f, r1	; 63
 12c:	cf e5       	ldi	r28, 0x5F	; 95
 12e:	d4 e0       	ldi	r29, 0x04	; 4
 130:	de bf       	out	0x3e, r29	; 62
 132:	cd bf       	out	0x3d, r28	; 61
 134:	02 d0       	rcall	.+4      	; 0x13a <main>
 136:	22 c5       	rjmp	.+2628   	; 0xb7c <_exit>

00000138 <__bad_interrupt>:
 138:	63 cf       	rjmp	.-314    	; 0x0 <__vectors>

0000013a <main>:

int main(void)
{
	int number = 124;
	
	DDRD |= 1<<LED_RED;
 13a:	8c 9a       	sbi	0x11, 4	; 17
	PORTD |= 1<<LED_RED;
 13c:	94 9a       	sbi	0x12, 4	; 18
	
    while(1)
    {
		number += 5;
		PORTD ^= 1<<LED_RED;
 13e:	90 e1       	ldi	r25, 0x10	; 16
 140:	82 b3       	in	r24, 0x12	; 18
 142:	89 27       	eor	r24, r25
 144:	82 bb       	out	0x12, r24	; 18
	#else
		//round up by default
		__ticks_dc = (uint32_t)(ceil(fabs(__tmp)));
	#endif

	__builtin_avr_delay_cycles(__ticks_dc);
 146:	2f ef       	ldi	r18, 0xFF	; 255
 148:	39 e6       	ldi	r19, 0x69	; 105
 14a:	88 e1       	ldi	r24, 0x18	; 24
 14c:	21 50       	subi	r18, 0x01	; 1
 14e:	30 40       	sbci	r19, 0x00	; 0
 150:	80 40       	sbci	r24, 0x00	; 0
 152:	e1 f7       	brne	.-8      	; 0x14c <main+0x12>
 154:	00 c0       	rjmp	.+0      	; 0x156 <main+0x1c>
 156:	00 00       	nop
 158:	f3 cf       	rjmp	.-26     	; 0x140 <main+0x6>

0000015a <vfprintf>:
 15a:	a3 e1       	ldi	r26, 0x13	; 19
 15c:	b0 e0       	ldi	r27, 0x00	; 0
 15e:	e2 eb       	ldi	r30, 0xB2	; 178
 160:	f0 e0       	ldi	r31, 0x00	; 0
 162:	57 c3       	rjmp	.+1710   	; 0x812 <__prologue_saves__>
 164:	7c 01       	movw	r14, r24
 166:	1b 01       	movw	r2, r22
 168:	6a 01       	movw	r12, r20
 16a:	fc 01       	movw	r30, r24
 16c:	17 82       	std	Z+7, r1	; 0x07
 16e:	16 82       	std	Z+6, r1	; 0x06
 170:	83 81       	ldd	r24, Z+3	; 0x03
 172:	81 ff       	sbrs	r24, 1
 174:	49 c3       	rjmp	.+1682   	; 0x808 <__stack+0x3a9>
 176:	be 01       	movw	r22, r28
 178:	6f 5f       	subi	r22, 0xFF	; 255
 17a:	7f 4f       	sbci	r23, 0xFF	; 255
 17c:	4b 01       	movw	r8, r22
 17e:	f7 01       	movw	r30, r14
 180:	93 81       	ldd	r25, Z+3	; 0x03
 182:	f1 01       	movw	r30, r2
 184:	93 fd       	sbrc	r25, 3
 186:	85 91       	lpm	r24, Z+
 188:	93 ff       	sbrs	r25, 3
 18a:	81 91       	ld	r24, Z+
 18c:	1f 01       	movw	r2, r30
 18e:	88 23       	and	r24, r24
 190:	09 f4       	brne	.+2      	; 0x194 <vfprintf+0x3a>
 192:	36 c3       	rjmp	.+1644   	; 0x800 <__stack+0x3a1>
 194:	85 32       	cpi	r24, 0x25	; 37
 196:	39 f4       	brne	.+14     	; 0x1a6 <vfprintf+0x4c>
 198:	93 fd       	sbrc	r25, 3
 19a:	85 91       	lpm	r24, Z+
 19c:	93 ff       	sbrs	r25, 3
 19e:	81 91       	ld	r24, Z+
 1a0:	1f 01       	movw	r2, r30
 1a2:	85 32       	cpi	r24, 0x25	; 37
 1a4:	31 f4       	brne	.+12     	; 0x1b2 <vfprintf+0x58>
 1a6:	b7 01       	movw	r22, r14
 1a8:	90 e0       	ldi	r25, 0x00	; 0
 1aa:	58 d4       	rcall	.+2224   	; 0xa5c <fputc>
 1ac:	56 01       	movw	r10, r12
 1ae:	65 01       	movw	r12, r10
 1b0:	e6 cf       	rjmp	.-52     	; 0x17e <vfprintf+0x24>
 1b2:	10 e0       	ldi	r17, 0x00	; 0
 1b4:	51 2c       	mov	r5, r1
 1b6:	20 e0       	ldi	r18, 0x00	; 0
 1b8:	20 32       	cpi	r18, 0x20	; 32
 1ba:	a0 f4       	brcc	.+40     	; 0x1e4 <vfprintf+0x8a>
 1bc:	8b 32       	cpi	r24, 0x2B	; 43
 1be:	69 f0       	breq	.+26     	; 0x1da <vfprintf+0x80>
 1c0:	30 f4       	brcc	.+12     	; 0x1ce <vfprintf+0x74>
 1c2:	80 32       	cpi	r24, 0x20	; 32
 1c4:	59 f0       	breq	.+22     	; 0x1dc <vfprintf+0x82>
 1c6:	83 32       	cpi	r24, 0x23	; 35
 1c8:	69 f4       	brne	.+26     	; 0x1e4 <vfprintf+0x8a>
 1ca:	20 61       	ori	r18, 0x10	; 16
 1cc:	2c c0       	rjmp	.+88     	; 0x226 <vfprintf+0xcc>
 1ce:	8d 32       	cpi	r24, 0x2D	; 45
 1d0:	39 f0       	breq	.+14     	; 0x1e0 <vfprintf+0x86>
 1d2:	80 33       	cpi	r24, 0x30	; 48
 1d4:	39 f4       	brne	.+14     	; 0x1e4 <vfprintf+0x8a>
 1d6:	21 60       	ori	r18, 0x01	; 1
 1d8:	26 c0       	rjmp	.+76     	; 0x226 <vfprintf+0xcc>
 1da:	22 60       	ori	r18, 0x02	; 2
 1dc:	24 60       	ori	r18, 0x04	; 4
 1de:	23 c0       	rjmp	.+70     	; 0x226 <vfprintf+0xcc>
 1e0:	28 60       	ori	r18, 0x08	; 8
 1e2:	21 c0       	rjmp	.+66     	; 0x226 <vfprintf+0xcc>
 1e4:	27 fd       	sbrc	r18, 7
 1e6:	27 c0       	rjmp	.+78     	; 0x236 <vfprintf+0xdc>
 1e8:	30 ed       	ldi	r19, 0xD0	; 208
 1ea:	38 0f       	add	r19, r24
 1ec:	3a 30       	cpi	r19, 0x0A	; 10
 1ee:	78 f4       	brcc	.+30     	; 0x20e <vfprintf+0xb4>
 1f0:	26 ff       	sbrs	r18, 6
 1f2:	06 c0       	rjmp	.+12     	; 0x200 <vfprintf+0xa6>
 1f4:	fa e0       	ldi	r31, 0x0A	; 10
 1f6:	1f 9f       	mul	r17, r31
 1f8:	30 0d       	add	r19, r0
 1fa:	11 24       	eor	r1, r1
 1fc:	13 2f       	mov	r17, r19
 1fe:	13 c0       	rjmp	.+38     	; 0x226 <vfprintf+0xcc>
 200:	6a e0       	ldi	r22, 0x0A	; 10
 202:	56 9e       	mul	r5, r22
 204:	30 0d       	add	r19, r0
 206:	11 24       	eor	r1, r1
 208:	53 2e       	mov	r5, r19
 20a:	20 62       	ori	r18, 0x20	; 32
 20c:	0c c0       	rjmp	.+24     	; 0x226 <vfprintf+0xcc>
 20e:	8e 32       	cpi	r24, 0x2E	; 46
 210:	21 f4       	brne	.+8      	; 0x21a <vfprintf+0xc0>
 212:	26 fd       	sbrc	r18, 6
 214:	f5 c2       	rjmp	.+1514   	; 0x800 <__stack+0x3a1>
 216:	20 64       	ori	r18, 0x40	; 64
 218:	06 c0       	rjmp	.+12     	; 0x226 <vfprintf+0xcc>
 21a:	8c 36       	cpi	r24, 0x6C	; 108
 21c:	11 f4       	brne	.+4      	; 0x222 <vfprintf+0xc8>
 21e:	20 68       	ori	r18, 0x80	; 128
 220:	02 c0       	rjmp	.+4      	; 0x226 <vfprintf+0xcc>
 222:	88 36       	cpi	r24, 0x68	; 104
 224:	41 f4       	brne	.+16     	; 0x236 <vfprintf+0xdc>
 226:	f1 01       	movw	r30, r2
 228:	93 fd       	sbrc	r25, 3
 22a:	85 91       	lpm	r24, Z+
 22c:	93 ff       	sbrs	r25, 3
 22e:	81 91       	ld	r24, Z+
 230:	1f 01       	movw	r2, r30
 232:	81 11       	cpse	r24, r1
 234:	c1 cf       	rjmp	.-126    	; 0x1b8 <vfprintf+0x5e>
 236:	9b eb       	ldi	r25, 0xBB	; 187
 238:	98 0f       	add	r25, r24
 23a:	93 30       	cpi	r25, 0x03	; 3
 23c:	18 f4       	brcc	.+6      	; 0x244 <vfprintf+0xea>
 23e:	20 61       	ori	r18, 0x10	; 16
 240:	80 5e       	subi	r24, 0xE0	; 224
 242:	06 c0       	rjmp	.+12     	; 0x250 <vfprintf+0xf6>
 244:	9b e9       	ldi	r25, 0x9B	; 155
 246:	98 0f       	add	r25, r24
 248:	93 30       	cpi	r25, 0x03	; 3
 24a:	08 f0       	brcs	.+2      	; 0x24e <vfprintf+0xf4>
 24c:	9a c1       	rjmp	.+820    	; 0x582 <__stack+0x123>
 24e:	2f 7e       	andi	r18, 0xEF	; 239
 250:	26 ff       	sbrs	r18, 6
 252:	16 e0       	ldi	r17, 0x06	; 6
 254:	2f 73       	andi	r18, 0x3F	; 63
 256:	72 2e       	mov	r7, r18
 258:	85 36       	cpi	r24, 0x65	; 101
 25a:	21 f4       	brne	.+8      	; 0x264 <vfprintf+0x10a>
 25c:	f2 2f       	mov	r31, r18
 25e:	f0 64       	ori	r31, 0x40	; 64
 260:	7f 2e       	mov	r7, r31
 262:	08 c0       	rjmp	.+16     	; 0x274 <vfprintf+0x11a>
 264:	86 36       	cpi	r24, 0x66	; 102
 266:	21 f4       	brne	.+8      	; 0x270 <vfprintf+0x116>
 268:	62 2f       	mov	r22, r18
 26a:	60 68       	ori	r22, 0x80	; 128
 26c:	76 2e       	mov	r7, r22
 26e:	02 c0       	rjmp	.+4      	; 0x274 <vfprintf+0x11a>
 270:	11 11       	cpse	r17, r1
 272:	11 50       	subi	r17, 0x01	; 1
 274:	77 fe       	sbrs	r7, 7
 276:	07 c0       	rjmp	.+14     	; 0x286 <vfprintf+0x12c>
 278:	1c 33       	cpi	r17, 0x3C	; 60
 27a:	48 f4       	brcc	.+18     	; 0x28e <vfprintf+0x134>
 27c:	44 24       	eor	r4, r4
 27e:	43 94       	inc	r4
 280:	41 0e       	add	r4, r17
 282:	27 e0       	ldi	r18, 0x07	; 7
 284:	0b c0       	rjmp	.+22     	; 0x29c <vfprintf+0x142>
 286:	18 30       	cpi	r17, 0x08	; 8
 288:	30 f4       	brcc	.+12     	; 0x296 <vfprintf+0x13c>
 28a:	21 2f       	mov	r18, r17
 28c:	06 c0       	rjmp	.+12     	; 0x29a <vfprintf+0x140>
 28e:	27 e0       	ldi	r18, 0x07	; 7
 290:	4c e3       	ldi	r20, 0x3C	; 60
 292:	44 2e       	mov	r4, r20
 294:	03 c0       	rjmp	.+6      	; 0x29c <vfprintf+0x142>
 296:	27 e0       	ldi	r18, 0x07	; 7
 298:	17 e0       	ldi	r17, 0x07	; 7
 29a:	41 2c       	mov	r4, r1
 29c:	56 01       	movw	r10, r12
 29e:	74 e0       	ldi	r23, 0x04	; 4
 2a0:	a7 0e       	add	r10, r23
 2a2:	b1 1c       	adc	r11, r1
 2a4:	f6 01       	movw	r30, r12
 2a6:	60 81       	ld	r22, Z
 2a8:	71 81       	ldd	r23, Z+1	; 0x01
 2aa:	82 81       	ldd	r24, Z+2	; 0x02
 2ac:	93 81       	ldd	r25, Z+3	; 0x03
 2ae:	04 2d       	mov	r16, r4
 2b0:	a4 01       	movw	r20, r8
 2b2:	e6 d2       	rcall	.+1484   	; 0x880 <__ftoa_engine>
 2b4:	6c 01       	movw	r12, r24
 2b6:	09 81       	ldd	r16, Y+1	; 0x01
 2b8:	00 ff       	sbrs	r16, 0
 2ba:	02 c0       	rjmp	.+4      	; 0x2c0 <vfprintf+0x166>
 2bc:	03 ff       	sbrs	r16, 3
 2be:	06 c0       	rjmp	.+12     	; 0x2cc <vfprintf+0x172>
 2c0:	71 fc       	sbrc	r7, 1
 2c2:	07 c0       	rjmp	.+14     	; 0x2d2 <vfprintf+0x178>
 2c4:	72 fc       	sbrc	r7, 2
 2c6:	08 c0       	rjmp	.+16     	; 0x2d8 <vfprintf+0x17e>
 2c8:	61 2c       	mov	r6, r1
 2ca:	08 c0       	rjmp	.+16     	; 0x2dc <vfprintf+0x182>
 2cc:	3d e2       	ldi	r19, 0x2D	; 45
 2ce:	63 2e       	mov	r6, r19
 2d0:	05 c0       	rjmp	.+10     	; 0x2dc <vfprintf+0x182>
 2d2:	2b e2       	ldi	r18, 0x2B	; 43
 2d4:	62 2e       	mov	r6, r18
 2d6:	02 c0       	rjmp	.+4      	; 0x2dc <vfprintf+0x182>
 2d8:	90 e2       	ldi	r25, 0x20	; 32
 2da:	69 2e       	mov	r6, r25
 2dc:	80 2f       	mov	r24, r16
 2de:	8c 70       	andi	r24, 0x0C	; 12
 2e0:	81 f1       	breq	.+96     	; 0x342 <vfprintf+0x1e8>
 2e2:	66 20       	and	r6, r6
 2e4:	11 f0       	breq	.+4      	; 0x2ea <vfprintf+0x190>
 2e6:	84 e0       	ldi	r24, 0x04	; 4
 2e8:	01 c0       	rjmp	.+2      	; 0x2ec <vfprintf+0x192>
 2ea:	83 e0       	ldi	r24, 0x03	; 3
 2ec:	85 15       	cp	r24, r5
 2ee:	10 f0       	brcs	.+4      	; 0x2f4 <vfprintf+0x19a>
 2f0:	51 2c       	mov	r5, r1
 2f2:	0a c0       	rjmp	.+20     	; 0x308 <vfprintf+0x1ae>
 2f4:	58 1a       	sub	r5, r24
 2f6:	73 fc       	sbrc	r7, 3
 2f8:	07 c0       	rjmp	.+14     	; 0x308 <vfprintf+0x1ae>
 2fa:	b7 01       	movw	r22, r14
 2fc:	80 e2       	ldi	r24, 0x20	; 32
 2fe:	90 e0       	ldi	r25, 0x00	; 0
 300:	ad d3       	rcall	.+1882   	; 0xa5c <fputc>
 302:	5a 94       	dec	r5
 304:	d1 f7       	brne	.-12     	; 0x2fa <vfprintf+0x1a0>
 306:	f4 cf       	rjmp	.-24     	; 0x2f0 <vfprintf+0x196>
 308:	66 20       	and	r6, r6
 30a:	21 f0       	breq	.+8      	; 0x314 <vfprintf+0x1ba>
 30c:	b7 01       	movw	r22, r14
 30e:	86 2d       	mov	r24, r6
 310:	90 e0       	ldi	r25, 0x00	; 0
 312:	a4 d3       	rcall	.+1864   	; 0xa5c <fputc>
 314:	03 fd       	sbrc	r16, 3
 316:	03 c0       	rjmp	.+6      	; 0x31e <vfprintf+0x1c4>
 318:	0a e2       	ldi	r16, 0x2A	; 42
 31a:	10 e0       	ldi	r17, 0x00	; 0
 31c:	02 c0       	rjmp	.+4      	; 0x322 <vfprintf+0x1c8>
 31e:	06 e2       	ldi	r16, 0x26	; 38
 320:	10 e0       	ldi	r17, 0x00	; 0
 322:	f7 2d       	mov	r31, r7
 324:	f0 71       	andi	r31, 0x10	; 16
 326:	7f 2e       	mov	r7, r31
 328:	f8 01       	movw	r30, r16
 32a:	84 91       	lpm	r24, Z
 32c:	88 23       	and	r24, r24
 32e:	09 f4       	brne	.+2      	; 0x332 <vfprintf+0x1d8>
 330:	5e c2       	rjmp	.+1212   	; 0x7ee <__stack+0x38f>
 332:	71 10       	cpse	r7, r1
 334:	80 52       	subi	r24, 0x20	; 32
 336:	b7 01       	movw	r22, r14
 338:	90 e0       	ldi	r25, 0x00	; 0
 33a:	90 d3       	rcall	.+1824   	; 0xa5c <fputc>
 33c:	0f 5f       	subi	r16, 0xFF	; 255
 33e:	1f 4f       	sbci	r17, 0xFF	; 255
 340:	f3 cf       	rjmp	.-26     	; 0x328 <vfprintf+0x1ce>
 342:	77 fe       	sbrs	r7, 7
 344:	0f c0       	rjmp	.+30     	; 0x364 <vfprintf+0x20a>
 346:	4c 0c       	add	r4, r12
 348:	04 ff       	sbrs	r16, 4
 34a:	04 c0       	rjmp	.+8      	; 0x354 <vfprintf+0x1fa>
 34c:	8a 81       	ldd	r24, Y+2	; 0x02
 34e:	81 33       	cpi	r24, 0x31	; 49
 350:	09 f4       	brne	.+2      	; 0x354 <vfprintf+0x1fa>
 352:	4a 94       	dec	r4
 354:	14 14       	cp	r1, r4
 356:	74 f5       	brge	.+92     	; 0x3b4 <vfprintf+0x25a>
 358:	f8 e0       	ldi	r31, 0x08	; 8
 35a:	f4 15       	cp	r31, r4
 35c:	78 f5       	brcc	.+94     	; 0x3bc <vfprintf+0x262>
 35e:	88 e0       	ldi	r24, 0x08	; 8
 360:	48 2e       	mov	r4, r24
 362:	2c c0       	rjmp	.+88     	; 0x3bc <vfprintf+0x262>
 364:	76 fc       	sbrc	r7, 6
 366:	2a c0       	rjmp	.+84     	; 0x3bc <vfprintf+0x262>
 368:	81 2f       	mov	r24, r17
 36a:	90 e0       	ldi	r25, 0x00	; 0
 36c:	8c 15       	cp	r24, r12
 36e:	9d 05       	cpc	r25, r13
 370:	9c f0       	brlt	.+38     	; 0x398 <vfprintf+0x23e>
 372:	6c ef       	ldi	r22, 0xFC	; 252
 374:	c6 16       	cp	r12, r22
 376:	6f ef       	ldi	r22, 0xFF	; 255
 378:	d6 06       	cpc	r13, r22
 37a:	74 f0       	brlt	.+28     	; 0x398 <vfprintf+0x23e>
 37c:	77 2d       	mov	r23, r7
 37e:	70 68       	ori	r23, 0x80	; 128
 380:	77 2e       	mov	r7, r23
 382:	0a c0       	rjmp	.+20     	; 0x398 <vfprintf+0x23e>
 384:	e2 e0       	ldi	r30, 0x02	; 2
 386:	f0 e0       	ldi	r31, 0x00	; 0
 388:	ec 0f       	add	r30, r28
 38a:	fd 1f       	adc	r31, r29
 38c:	e1 0f       	add	r30, r17
 38e:	f1 1d       	adc	r31, r1
 390:	80 81       	ld	r24, Z
 392:	80 33       	cpi	r24, 0x30	; 48
 394:	19 f4       	brne	.+6      	; 0x39c <vfprintf+0x242>
 396:	11 50       	subi	r17, 0x01	; 1
 398:	11 11       	cpse	r17, r1
 39a:	f4 cf       	rjmp	.-24     	; 0x384 <vfprintf+0x22a>
 39c:	77 fe       	sbrs	r7, 7
 39e:	0e c0       	rjmp	.+28     	; 0x3bc <vfprintf+0x262>
 3a0:	44 24       	eor	r4, r4
 3a2:	43 94       	inc	r4
 3a4:	41 0e       	add	r4, r17
 3a6:	81 2f       	mov	r24, r17
 3a8:	90 e0       	ldi	r25, 0x00	; 0
 3aa:	c8 16       	cp	r12, r24
 3ac:	d9 06       	cpc	r13, r25
 3ae:	2c f4       	brge	.+10     	; 0x3ba <vfprintf+0x260>
 3b0:	1c 19       	sub	r17, r12
 3b2:	04 c0       	rjmp	.+8      	; 0x3bc <vfprintf+0x262>
 3b4:	44 24       	eor	r4, r4
 3b6:	43 94       	inc	r4
 3b8:	01 c0       	rjmp	.+2      	; 0x3bc <vfprintf+0x262>
 3ba:	10 e0       	ldi	r17, 0x00	; 0
 3bc:	77 fe       	sbrs	r7, 7
 3be:	07 c0       	rjmp	.+14     	; 0x3ce <vfprintf+0x274>
 3c0:	1c 14       	cp	r1, r12
 3c2:	1d 04       	cpc	r1, r13
 3c4:	3c f4       	brge	.+14     	; 0x3d4 <vfprintf+0x27a>
 3c6:	96 01       	movw	r18, r12
 3c8:	2f 5f       	subi	r18, 0xFF	; 255
 3ca:	3f 4f       	sbci	r19, 0xFF	; 255
 3cc:	05 c0       	rjmp	.+10     	; 0x3d8 <vfprintf+0x27e>
 3ce:	25 e0       	ldi	r18, 0x05	; 5
 3d0:	30 e0       	ldi	r19, 0x00	; 0
 3d2:	02 c0       	rjmp	.+4      	; 0x3d8 <vfprintf+0x27e>
 3d4:	21 e0       	ldi	r18, 0x01	; 1
 3d6:	30 e0       	ldi	r19, 0x00	; 0
 3d8:	66 20       	and	r6, r6
 3da:	11 f0       	breq	.+4      	; 0x3e0 <vfprintf+0x286>
 3dc:	2f 5f       	subi	r18, 0xFF	; 255
 3de:	3f 4f       	sbci	r19, 0xFF	; 255
 3e0:	11 23       	and	r17, r17
 3e2:	31 f0       	breq	.+12     	; 0x3f0 <vfprintf+0x296>
 3e4:	41 2f       	mov	r20, r17
 3e6:	50 e0       	ldi	r21, 0x00	; 0
 3e8:	4f 5f       	subi	r20, 0xFF	; 255
 3ea:	5f 4f       	sbci	r21, 0xFF	; 255
 3ec:	24 0f       	add	r18, r20
 3ee:	35 1f       	adc	r19, r21
 3f0:	45 2d       	mov	r20, r5
 3f2:	50 e0       	ldi	r21, 0x00	; 0
 3f4:	24 17       	cp	r18, r20
 3f6:	35 07       	cpc	r19, r21
 3f8:	14 f4       	brge	.+4      	; 0x3fe <vfprintf+0x2a4>
 3fa:	52 1a       	sub	r5, r18
 3fc:	01 c0       	rjmp	.+2      	; 0x400 <vfprintf+0x2a6>
 3fe:	51 2c       	mov	r5, r1
 400:	87 2d       	mov	r24, r7
 402:	89 70       	andi	r24, 0x09	; 9
 404:	41 f4       	brne	.+16     	; 0x416 <vfprintf+0x2bc>
 406:	55 20       	and	r5, r5
 408:	31 f0       	breq	.+12     	; 0x416 <vfprintf+0x2bc>
 40a:	b7 01       	movw	r22, r14
 40c:	80 e2       	ldi	r24, 0x20	; 32
 40e:	90 e0       	ldi	r25, 0x00	; 0
 410:	25 d3       	rcall	.+1610   	; 0xa5c <fputc>
 412:	5a 94       	dec	r5
 414:	f8 cf       	rjmp	.-16     	; 0x406 <vfprintf+0x2ac>
 416:	66 20       	and	r6, r6
 418:	21 f0       	breq	.+8      	; 0x422 <vfprintf+0x2c8>
 41a:	b7 01       	movw	r22, r14
 41c:	86 2d       	mov	r24, r6
 41e:	90 e0       	ldi	r25, 0x00	; 0
 420:	1d d3       	rcall	.+1594   	; 0xa5c <fputc>
 422:	73 fc       	sbrc	r7, 3
 424:	08 c0       	rjmp	.+16     	; 0x436 <vfprintf+0x2dc>
 426:	55 20       	and	r5, r5
 428:	31 f0       	breq	.+12     	; 0x436 <vfprintf+0x2dc>
 42a:	b7 01       	movw	r22, r14
 42c:	80 e3       	ldi	r24, 0x30	; 48
 42e:	90 e0       	ldi	r25, 0x00	; 0
 430:	15 d3       	rcall	.+1578   	; 0xa5c <fputc>
 432:	5a 94       	dec	r5
 434:	f8 cf       	rjmp	.-16     	; 0x426 <vfprintf+0x2cc>
 436:	77 fe       	sbrs	r7, 7
 438:	5d c0       	rjmp	.+186    	; 0x4f4 <__stack+0x95>
 43a:	9c 2d       	mov	r25, r12
 43c:	8d 2d       	mov	r24, r13
 43e:	d7 fe       	sbrs	r13, 7
 440:	02 c0       	rjmp	.+4      	; 0x446 <vfprintf+0x2ec>
 442:	90 e0       	ldi	r25, 0x00	; 0
 444:	80 e0       	ldi	r24, 0x00	; 0
 446:	69 2e       	mov	r6, r25
 448:	78 2e       	mov	r7, r24
 44a:	40 e0       	ldi	r20, 0x00	; 0
 44c:	50 e0       	ldi	r21, 0x00	; 0
 44e:	c6 01       	movw	r24, r12
 450:	84 19       	sub	r24, r4
 452:	91 09       	sbc	r25, r1
 454:	9d 87       	std	Y+13, r25	; 0x0d
 456:	8c 87       	std	Y+12, r24	; 0x0c
 458:	96 01       	movw	r18, r12
 45a:	26 19       	sub	r18, r6
 45c:	37 09       	sbc	r19, r7
 45e:	28 0d       	add	r18, r8
 460:	39 1d       	adc	r19, r9
 462:	81 2f       	mov	r24, r17
 464:	90 e0       	ldi	r25, 0x00	; 0
 466:	ee 27       	eor	r30, r30
 468:	ff 27       	eor	r31, r31
 46a:	e8 1b       	sub	r30, r24
 46c:	f9 0b       	sbc	r31, r25
 46e:	ff 87       	std	Y+15, r31	; 0x0f
 470:	ee 87       	std	Y+14, r30	; 0x0e
 472:	ff ef       	ldi	r31, 0xFF	; 255
 474:	6f 16       	cp	r6, r31
 476:	7f 06       	cpc	r7, r31
 478:	61 f4       	brne	.+24     	; 0x492 <__stack+0x33>
 47a:	b7 01       	movw	r22, r14
 47c:	8e e2       	ldi	r24, 0x2E	; 46
 47e:	90 e0       	ldi	r25, 0x00	; 0
 480:	2b 8b       	std	Y+19, r18	; 0x13
 482:	3a 8b       	std	Y+18, r19	; 0x12
 484:	48 8b       	std	Y+16, r20	; 0x10
 486:	59 8b       	std	Y+17, r21	; 0x11
 488:	e9 d2       	rcall	.+1490   	; 0xa5c <fputc>
 48a:	59 89       	ldd	r21, Y+17	; 0x11
 48c:	48 89       	ldd	r20, Y+16	; 0x10
 48e:	3a 89       	ldd	r19, Y+18	; 0x12
 490:	2b 89       	ldd	r18, Y+19	; 0x13
 492:	c6 14       	cp	r12, r6
 494:	d7 04       	cpc	r13, r7
 496:	54 f0       	brlt	.+20     	; 0x4ac <__stack+0x4d>
 498:	6c 85       	ldd	r22, Y+12	; 0x0c
 49a:	7d 85       	ldd	r23, Y+13	; 0x0d
 49c:	66 15       	cp	r22, r6
 49e:	77 05       	cpc	r23, r7
 4a0:	2c f4       	brge	.+10     	; 0x4ac <__stack+0x4d>
 4a2:	f9 01       	movw	r30, r18
 4a4:	e4 0f       	add	r30, r20
 4a6:	f5 1f       	adc	r31, r21
 4a8:	81 81       	ldd	r24, Z+1	; 0x01
 4aa:	01 c0       	rjmp	.+2      	; 0x4ae <__stack+0x4f>
 4ac:	80 e3       	ldi	r24, 0x30	; 48
 4ae:	71 e0       	ldi	r23, 0x01	; 1
 4b0:	67 1a       	sub	r6, r23
 4b2:	71 08       	sbc	r7, r1
 4b4:	4f 5f       	subi	r20, 0xFF	; 255
 4b6:	5f 4f       	sbci	r21, 0xFF	; 255
 4b8:	ee 85       	ldd	r30, Y+14	; 0x0e
 4ba:	ff 85       	ldd	r31, Y+15	; 0x0f
 4bc:	6e 16       	cp	r6, r30
 4be:	7f 06       	cpc	r7, r31
 4c0:	64 f0       	brlt	.+24     	; 0x4da <__stack+0x7b>
 4c2:	b7 01       	movw	r22, r14
 4c4:	90 e0       	ldi	r25, 0x00	; 0
 4c6:	2b 8b       	std	Y+19, r18	; 0x13
 4c8:	3a 8b       	std	Y+18, r19	; 0x12
 4ca:	48 8b       	std	Y+16, r20	; 0x10
 4cc:	59 8b       	std	Y+17, r21	; 0x11
 4ce:	c6 d2       	rcall	.+1420   	; 0xa5c <fputc>
 4d0:	2b 89       	ldd	r18, Y+19	; 0x13
 4d2:	3a 89       	ldd	r19, Y+18	; 0x12
 4d4:	48 89       	ldd	r20, Y+16	; 0x10
 4d6:	59 89       	ldd	r21, Y+17	; 0x11
 4d8:	cc cf       	rjmp	.-104    	; 0x472 <__stack+0x13>
 4da:	6c 14       	cp	r6, r12
 4dc:	7d 04       	cpc	r7, r13
 4de:	39 f4       	brne	.+14     	; 0x4ee <__stack+0x8f>
 4e0:	9a 81       	ldd	r25, Y+2	; 0x02
 4e2:	96 33       	cpi	r25, 0x36	; 54
 4e4:	18 f4       	brcc	.+6      	; 0x4ec <__stack+0x8d>
 4e6:	95 33       	cpi	r25, 0x35	; 53
 4e8:	11 f4       	brne	.+4      	; 0x4ee <__stack+0x8f>
 4ea:	04 ff       	sbrs	r16, 4
 4ec:	81 e3       	ldi	r24, 0x31	; 49
 4ee:	b7 01       	movw	r22, r14
 4f0:	90 e0       	ldi	r25, 0x00	; 0
 4f2:	45 c0       	rjmp	.+138    	; 0x57e <__stack+0x11f>
 4f4:	8a 81       	ldd	r24, Y+2	; 0x02
 4f6:	81 33       	cpi	r24, 0x31	; 49
 4f8:	09 f0       	breq	.+2      	; 0x4fc <__stack+0x9d>
 4fa:	0f 7e       	andi	r16, 0xEF	; 239
 4fc:	b7 01       	movw	r22, r14
 4fe:	90 e0       	ldi	r25, 0x00	; 0
 500:	ad d2       	rcall	.+1370   	; 0xa5c <fputc>
 502:	11 11       	cpse	r17, r1
 504:	05 c0       	rjmp	.+10     	; 0x510 <__stack+0xb1>
 506:	74 fe       	sbrs	r7, 4
 508:	16 c0       	rjmp	.+44     	; 0x536 <__stack+0xd7>
 50a:	85 e4       	ldi	r24, 0x45	; 69
 50c:	90 e0       	ldi	r25, 0x00	; 0
 50e:	15 c0       	rjmp	.+42     	; 0x53a <__stack+0xdb>
 510:	b7 01       	movw	r22, r14
 512:	8e e2       	ldi	r24, 0x2E	; 46
 514:	90 e0       	ldi	r25, 0x00	; 0
 516:	a2 d2       	rcall	.+1348   	; 0xa5c <fputc>
 518:	82 e0       	ldi	r24, 0x02	; 2
 51a:	66 24       	eor	r6, r6
 51c:	63 94       	inc	r6
 51e:	68 0e       	add	r6, r24
 520:	f4 01       	movw	r30, r8
 522:	e8 0f       	add	r30, r24
 524:	f1 1d       	adc	r31, r1
 526:	80 81       	ld	r24, Z
 528:	b7 01       	movw	r22, r14
 52a:	90 e0       	ldi	r25, 0x00	; 0
 52c:	97 d2       	rcall	.+1326   	; 0xa5c <fputc>
 52e:	11 50       	subi	r17, 0x01	; 1
 530:	51 f3       	breq	.-44     	; 0x506 <__stack+0xa7>
 532:	86 2d       	mov	r24, r6
 534:	f2 cf       	rjmp	.-28     	; 0x51a <__stack+0xbb>
 536:	85 e6       	ldi	r24, 0x65	; 101
 538:	90 e0       	ldi	r25, 0x00	; 0
 53a:	b7 01       	movw	r22, r14
 53c:	8f d2       	rcall	.+1310   	; 0xa5c <fputc>
 53e:	d7 fc       	sbrc	r13, 7
 540:	05 c0       	rjmp	.+10     	; 0x54c <__stack+0xed>
 542:	c1 14       	cp	r12, r1
 544:	d1 04       	cpc	r13, r1
 546:	39 f4       	brne	.+14     	; 0x556 <__stack+0xf7>
 548:	04 ff       	sbrs	r16, 4
 54a:	05 c0       	rjmp	.+10     	; 0x556 <__stack+0xf7>
 54c:	d1 94       	neg	r13
 54e:	c1 94       	neg	r12
 550:	d1 08       	sbc	r13, r1
 552:	8d e2       	ldi	r24, 0x2D	; 45
 554:	01 c0       	rjmp	.+2      	; 0x558 <__stack+0xf9>
 556:	8b e2       	ldi	r24, 0x2B	; 43
 558:	b7 01       	movw	r22, r14
 55a:	90 e0       	ldi	r25, 0x00	; 0
 55c:	7f d2       	rcall	.+1278   	; 0xa5c <fputc>
 55e:	80 e3       	ldi	r24, 0x30	; 48
 560:	6a e0       	ldi	r22, 0x0A	; 10
 562:	c6 16       	cp	r12, r22
 564:	d1 04       	cpc	r13, r1
 566:	2c f0       	brlt	.+10     	; 0x572 <__stack+0x113>
 568:	8f 5f       	subi	r24, 0xFF	; 255
 56a:	fa e0       	ldi	r31, 0x0A	; 10
 56c:	cf 1a       	sub	r12, r31
 56e:	d1 08       	sbc	r13, r1
 570:	f7 cf       	rjmp	.-18     	; 0x560 <__stack+0x101>
 572:	b7 01       	movw	r22, r14
 574:	90 e0       	ldi	r25, 0x00	; 0
 576:	72 d2       	rcall	.+1252   	; 0xa5c <fputc>
 578:	b7 01       	movw	r22, r14
 57a:	c6 01       	movw	r24, r12
 57c:	c0 96       	adiw	r24, 0x30	; 48
 57e:	6e d2       	rcall	.+1244   	; 0xa5c <fputc>
 580:	36 c1       	rjmp	.+620    	; 0x7ee <__stack+0x38f>
 582:	83 36       	cpi	r24, 0x63	; 99
 584:	31 f0       	breq	.+12     	; 0x592 <__stack+0x133>
 586:	83 37       	cpi	r24, 0x73	; 115
 588:	79 f0       	breq	.+30     	; 0x5a8 <__stack+0x149>
 58a:	83 35       	cpi	r24, 0x53	; 83
 58c:	09 f0       	breq	.+2      	; 0x590 <__stack+0x131>
 58e:	54 c0       	rjmp	.+168    	; 0x638 <__stack+0x1d9>
 590:	20 c0       	rjmp	.+64     	; 0x5d2 <__stack+0x173>
 592:	56 01       	movw	r10, r12
 594:	72 e0       	ldi	r23, 0x02	; 2
 596:	a7 0e       	add	r10, r23
 598:	b1 1c       	adc	r11, r1
 59a:	f6 01       	movw	r30, r12
 59c:	80 81       	ld	r24, Z
 59e:	89 83       	std	Y+1, r24	; 0x01
 5a0:	01 e0       	ldi	r16, 0x01	; 1
 5a2:	10 e0       	ldi	r17, 0x00	; 0
 5a4:	64 01       	movw	r12, r8
 5a6:	13 c0       	rjmp	.+38     	; 0x5ce <__stack+0x16f>
 5a8:	56 01       	movw	r10, r12
 5aa:	f2 e0       	ldi	r31, 0x02	; 2
 5ac:	af 0e       	add	r10, r31
 5ae:	b1 1c       	adc	r11, r1
 5b0:	f6 01       	movw	r30, r12
 5b2:	c0 80       	ld	r12, Z
 5b4:	d1 80       	ldd	r13, Z+1	; 0x01
 5b6:	26 ff       	sbrs	r18, 6
 5b8:	03 c0       	rjmp	.+6      	; 0x5c0 <__stack+0x161>
 5ba:	61 2f       	mov	r22, r17
 5bc:	70 e0       	ldi	r23, 0x00	; 0
 5be:	02 c0       	rjmp	.+4      	; 0x5c4 <__stack+0x165>
 5c0:	6f ef       	ldi	r22, 0xFF	; 255
 5c2:	7f ef       	ldi	r23, 0xFF	; 255
 5c4:	c6 01       	movw	r24, r12
 5c6:	2b 8b       	std	Y+19, r18	; 0x13
 5c8:	3e d2       	rcall	.+1148   	; 0xa46 <strnlen>
 5ca:	8c 01       	movw	r16, r24
 5cc:	2b 89       	ldd	r18, Y+19	; 0x13
 5ce:	2f 77       	andi	r18, 0x7F	; 127
 5d0:	14 c0       	rjmp	.+40     	; 0x5fa <__stack+0x19b>
 5d2:	56 01       	movw	r10, r12
 5d4:	f2 e0       	ldi	r31, 0x02	; 2
 5d6:	af 0e       	add	r10, r31
 5d8:	b1 1c       	adc	r11, r1
 5da:	f6 01       	movw	r30, r12
 5dc:	c0 80       	ld	r12, Z
 5de:	d1 80       	ldd	r13, Z+1	; 0x01
 5e0:	26 ff       	sbrs	r18, 6
 5e2:	03 c0       	rjmp	.+6      	; 0x5ea <__stack+0x18b>
 5e4:	61 2f       	mov	r22, r17
 5e6:	70 e0       	ldi	r23, 0x00	; 0
 5e8:	02 c0       	rjmp	.+4      	; 0x5ee <__stack+0x18f>
 5ea:	6f ef       	ldi	r22, 0xFF	; 255
 5ec:	7f ef       	ldi	r23, 0xFF	; 255
 5ee:	c6 01       	movw	r24, r12
 5f0:	2b 8b       	std	Y+19, r18	; 0x13
 5f2:	1e d2       	rcall	.+1084   	; 0xa30 <strnlen_P>
 5f4:	8c 01       	movw	r16, r24
 5f6:	2b 89       	ldd	r18, Y+19	; 0x13
 5f8:	20 68       	ori	r18, 0x80	; 128
 5fa:	72 2e       	mov	r7, r18
 5fc:	23 fd       	sbrc	r18, 3
 5fe:	18 c0       	rjmp	.+48     	; 0x630 <__stack+0x1d1>
 600:	85 2d       	mov	r24, r5
 602:	90 e0       	ldi	r25, 0x00	; 0
 604:	08 17       	cp	r16, r24
 606:	19 07       	cpc	r17, r25
 608:	98 f4       	brcc	.+38     	; 0x630 <__stack+0x1d1>
 60a:	b7 01       	movw	r22, r14
 60c:	80 e2       	ldi	r24, 0x20	; 32
 60e:	90 e0       	ldi	r25, 0x00	; 0
 610:	25 d2       	rcall	.+1098   	; 0xa5c <fputc>
 612:	5a 94       	dec	r5
 614:	f5 cf       	rjmp	.-22     	; 0x600 <__stack+0x1a1>
 616:	f6 01       	movw	r30, r12
 618:	77 fc       	sbrc	r7, 7
 61a:	85 91       	lpm	r24, Z+
 61c:	77 fe       	sbrs	r7, 7
 61e:	81 91       	ld	r24, Z+
 620:	6f 01       	movw	r12, r30
 622:	b7 01       	movw	r22, r14
 624:	90 e0       	ldi	r25, 0x00	; 0
 626:	1a d2       	rcall	.+1076   	; 0xa5c <fputc>
 628:	51 10       	cpse	r5, r1
 62a:	5a 94       	dec	r5
 62c:	01 50       	subi	r16, 0x01	; 1
 62e:	11 09       	sbc	r17, r1
 630:	01 15       	cp	r16, r1
 632:	11 05       	cpc	r17, r1
 634:	81 f7       	brne	.-32     	; 0x616 <__stack+0x1b7>
 636:	db c0       	rjmp	.+438    	; 0x7ee <__stack+0x38f>
 638:	84 36       	cpi	r24, 0x64	; 100
 63a:	11 f0       	breq	.+4      	; 0x640 <__stack+0x1e1>
 63c:	89 36       	cpi	r24, 0x69	; 105
 63e:	49 f5       	brne	.+82     	; 0x692 <__stack+0x233>
 640:	56 01       	movw	r10, r12
 642:	27 ff       	sbrs	r18, 7
 644:	09 c0       	rjmp	.+18     	; 0x658 <__stack+0x1f9>
 646:	f4 e0       	ldi	r31, 0x04	; 4
 648:	af 0e       	add	r10, r31
 64a:	b1 1c       	adc	r11, r1
 64c:	f6 01       	movw	r30, r12
 64e:	60 81       	ld	r22, Z
 650:	71 81       	ldd	r23, Z+1	; 0x01
 652:	82 81       	ldd	r24, Z+2	; 0x02
 654:	93 81       	ldd	r25, Z+3	; 0x03
 656:	0a c0       	rjmp	.+20     	; 0x66c <__stack+0x20d>
 658:	f2 e0       	ldi	r31, 0x02	; 2
 65a:	af 0e       	add	r10, r31
 65c:	b1 1c       	adc	r11, r1
 65e:	f6 01       	movw	r30, r12
 660:	60 81       	ld	r22, Z
 662:	71 81       	ldd	r23, Z+1	; 0x01
 664:	88 27       	eor	r24, r24
 666:	77 fd       	sbrc	r23, 7
 668:	80 95       	com	r24
 66a:	98 2f       	mov	r25, r24
 66c:	02 2f       	mov	r16, r18
 66e:	0f 76       	andi	r16, 0x6F	; 111
 670:	97 ff       	sbrs	r25, 7
 672:	08 c0       	rjmp	.+16     	; 0x684 <__stack+0x225>
 674:	90 95       	com	r25
 676:	80 95       	com	r24
 678:	70 95       	com	r23
 67a:	61 95       	neg	r22
 67c:	7f 4f       	sbci	r23, 0xFF	; 255
 67e:	8f 4f       	sbci	r24, 0xFF	; 255
 680:	9f 4f       	sbci	r25, 0xFF	; 255
 682:	00 68       	ori	r16, 0x80	; 128
 684:	2a e0       	ldi	r18, 0x0A	; 10
 686:	30 e0       	ldi	r19, 0x00	; 0
 688:	a4 01       	movw	r20, r8
 68a:	1a d2       	rcall	.+1076   	; 0xac0 <__ultoa_invert>
 68c:	c8 2e       	mov	r12, r24
 68e:	c8 18       	sub	r12, r8
 690:	3d c0       	rjmp	.+122    	; 0x70c <__stack+0x2ad>
 692:	02 2f       	mov	r16, r18
 694:	85 37       	cpi	r24, 0x75	; 117
 696:	21 f4       	brne	.+8      	; 0x6a0 <__stack+0x241>
 698:	0f 7e       	andi	r16, 0xEF	; 239
 69a:	2a e0       	ldi	r18, 0x0A	; 10
 69c:	30 e0       	ldi	r19, 0x00	; 0
 69e:	1d c0       	rjmp	.+58     	; 0x6da <__stack+0x27b>
 6a0:	09 7f       	andi	r16, 0xF9	; 249
 6a2:	8f 36       	cpi	r24, 0x6F	; 111
 6a4:	91 f0       	breq	.+36     	; 0x6ca <__stack+0x26b>
 6a6:	18 f4       	brcc	.+6      	; 0x6ae <__stack+0x24f>
 6a8:	88 35       	cpi	r24, 0x58	; 88
 6aa:	59 f0       	breq	.+22     	; 0x6c2 <__stack+0x263>
 6ac:	a9 c0       	rjmp	.+338    	; 0x800 <__stack+0x3a1>
 6ae:	80 37       	cpi	r24, 0x70	; 112
 6b0:	19 f0       	breq	.+6      	; 0x6b8 <__stack+0x259>
 6b2:	88 37       	cpi	r24, 0x78	; 120
 6b4:	11 f0       	breq	.+4      	; 0x6ba <__stack+0x25b>
 6b6:	a4 c0       	rjmp	.+328    	; 0x800 <__stack+0x3a1>
 6b8:	00 61       	ori	r16, 0x10	; 16
 6ba:	04 ff       	sbrs	r16, 4
 6bc:	09 c0       	rjmp	.+18     	; 0x6d0 <__stack+0x271>
 6be:	04 60       	ori	r16, 0x04	; 4
 6c0:	07 c0       	rjmp	.+14     	; 0x6d0 <__stack+0x271>
 6c2:	24 ff       	sbrs	r18, 4
 6c4:	08 c0       	rjmp	.+16     	; 0x6d6 <__stack+0x277>
 6c6:	06 60       	ori	r16, 0x06	; 6
 6c8:	06 c0       	rjmp	.+12     	; 0x6d6 <__stack+0x277>
 6ca:	28 e0       	ldi	r18, 0x08	; 8
 6cc:	30 e0       	ldi	r19, 0x00	; 0
 6ce:	05 c0       	rjmp	.+10     	; 0x6da <__stack+0x27b>
 6d0:	20 e1       	ldi	r18, 0x10	; 16
 6d2:	30 e0       	ldi	r19, 0x00	; 0
 6d4:	02 c0       	rjmp	.+4      	; 0x6da <__stack+0x27b>
 6d6:	20 e1       	ldi	r18, 0x10	; 16
 6d8:	32 e0       	ldi	r19, 0x02	; 2
 6da:	56 01       	movw	r10, r12
 6dc:	07 ff       	sbrs	r16, 7
 6de:	09 c0       	rjmp	.+18     	; 0x6f2 <__stack+0x293>
 6e0:	f4 e0       	ldi	r31, 0x04	; 4
 6e2:	af 0e       	add	r10, r31
 6e4:	b1 1c       	adc	r11, r1
 6e6:	f6 01       	movw	r30, r12
 6e8:	60 81       	ld	r22, Z
 6ea:	71 81       	ldd	r23, Z+1	; 0x01
 6ec:	82 81       	ldd	r24, Z+2	; 0x02
 6ee:	93 81       	ldd	r25, Z+3	; 0x03
 6f0:	08 c0       	rjmp	.+16     	; 0x702 <__stack+0x2a3>
 6f2:	f2 e0       	ldi	r31, 0x02	; 2
 6f4:	af 0e       	add	r10, r31
 6f6:	b1 1c       	adc	r11, r1
 6f8:	f6 01       	movw	r30, r12
 6fa:	60 81       	ld	r22, Z
 6fc:	71 81       	ldd	r23, Z+1	; 0x01
 6fe:	80 e0       	ldi	r24, 0x00	; 0
 700:	90 e0       	ldi	r25, 0x00	; 0
 702:	a4 01       	movw	r20, r8
 704:	dd d1       	rcall	.+954    	; 0xac0 <__ultoa_invert>
 706:	c8 2e       	mov	r12, r24
 708:	c8 18       	sub	r12, r8
 70a:	0f 77       	andi	r16, 0x7F	; 127
 70c:	06 ff       	sbrs	r16, 6
 70e:	0b c0       	rjmp	.+22     	; 0x726 <__stack+0x2c7>
 710:	20 2f       	mov	r18, r16
 712:	2e 7f       	andi	r18, 0xFE	; 254
 714:	c1 16       	cp	r12, r17
 716:	50 f4       	brcc	.+20     	; 0x72c <__stack+0x2cd>
 718:	04 ff       	sbrs	r16, 4
 71a:	0a c0       	rjmp	.+20     	; 0x730 <__stack+0x2d1>
 71c:	02 fd       	sbrc	r16, 2
 71e:	08 c0       	rjmp	.+16     	; 0x730 <__stack+0x2d1>
 720:	20 2f       	mov	r18, r16
 722:	2e 7e       	andi	r18, 0xEE	; 238
 724:	05 c0       	rjmp	.+10     	; 0x730 <__stack+0x2d1>
 726:	dc 2c       	mov	r13, r12
 728:	20 2f       	mov	r18, r16
 72a:	03 c0       	rjmp	.+6      	; 0x732 <__stack+0x2d3>
 72c:	dc 2c       	mov	r13, r12
 72e:	01 c0       	rjmp	.+2      	; 0x732 <__stack+0x2d3>
 730:	d1 2e       	mov	r13, r17
 732:	24 ff       	sbrs	r18, 4
 734:	0d c0       	rjmp	.+26     	; 0x750 <__stack+0x2f1>
 736:	fe 01       	movw	r30, r28
 738:	ec 0d       	add	r30, r12
 73a:	f1 1d       	adc	r31, r1
 73c:	80 81       	ld	r24, Z
 73e:	80 33       	cpi	r24, 0x30	; 48
 740:	11 f4       	brne	.+4      	; 0x746 <__stack+0x2e7>
 742:	29 7e       	andi	r18, 0xE9	; 233
 744:	09 c0       	rjmp	.+18     	; 0x758 <__stack+0x2f9>
 746:	22 ff       	sbrs	r18, 2
 748:	06 c0       	rjmp	.+12     	; 0x756 <__stack+0x2f7>
 74a:	d3 94       	inc	r13
 74c:	d3 94       	inc	r13
 74e:	04 c0       	rjmp	.+8      	; 0x758 <__stack+0x2f9>
 750:	82 2f       	mov	r24, r18
 752:	86 78       	andi	r24, 0x86	; 134
 754:	09 f0       	breq	.+2      	; 0x758 <__stack+0x2f9>
 756:	d3 94       	inc	r13
 758:	23 fd       	sbrc	r18, 3
 75a:	12 c0       	rjmp	.+36     	; 0x780 <__stack+0x321>
 75c:	20 ff       	sbrs	r18, 0
 75e:	06 c0       	rjmp	.+12     	; 0x76c <__stack+0x30d>
 760:	1c 2d       	mov	r17, r12
 762:	d5 14       	cp	r13, r5
 764:	18 f4       	brcc	.+6      	; 0x76c <__stack+0x30d>
 766:	15 0d       	add	r17, r5
 768:	1d 19       	sub	r17, r13
 76a:	d5 2c       	mov	r13, r5
 76c:	d5 14       	cp	r13, r5
 76e:	60 f4       	brcc	.+24     	; 0x788 <__stack+0x329>
 770:	b7 01       	movw	r22, r14
 772:	80 e2       	ldi	r24, 0x20	; 32
 774:	90 e0       	ldi	r25, 0x00	; 0
 776:	2b 8b       	std	Y+19, r18	; 0x13
 778:	71 d1       	rcall	.+738    	; 0xa5c <fputc>
 77a:	d3 94       	inc	r13
 77c:	2b 89       	ldd	r18, Y+19	; 0x13
 77e:	f6 cf       	rjmp	.-20     	; 0x76c <__stack+0x30d>
 780:	d5 14       	cp	r13, r5
 782:	10 f4       	brcc	.+4      	; 0x788 <__stack+0x329>
 784:	5d 18       	sub	r5, r13
 786:	01 c0       	rjmp	.+2      	; 0x78a <__stack+0x32b>
 788:	51 2c       	mov	r5, r1
 78a:	24 ff       	sbrs	r18, 4
 78c:	11 c0       	rjmp	.+34     	; 0x7b0 <__stack+0x351>
 78e:	b7 01       	movw	r22, r14
 790:	80 e3       	ldi	r24, 0x30	; 48
 792:	90 e0       	ldi	r25, 0x00	; 0
 794:	2b 8b       	std	Y+19, r18	; 0x13
 796:	62 d1       	rcall	.+708    	; 0xa5c <fputc>
 798:	2b 89       	ldd	r18, Y+19	; 0x13
 79a:	22 ff       	sbrs	r18, 2
 79c:	16 c0       	rjmp	.+44     	; 0x7ca <__stack+0x36b>
 79e:	21 ff       	sbrs	r18, 1
 7a0:	03 c0       	rjmp	.+6      	; 0x7a8 <__stack+0x349>
 7a2:	88 e5       	ldi	r24, 0x58	; 88
 7a4:	90 e0       	ldi	r25, 0x00	; 0
 7a6:	02 c0       	rjmp	.+4      	; 0x7ac <__stack+0x34d>
 7a8:	88 e7       	ldi	r24, 0x78	; 120
 7aa:	90 e0       	ldi	r25, 0x00	; 0
 7ac:	b7 01       	movw	r22, r14
 7ae:	0c c0       	rjmp	.+24     	; 0x7c8 <__stack+0x369>
 7b0:	82 2f       	mov	r24, r18
 7b2:	86 78       	andi	r24, 0x86	; 134
 7b4:	51 f0       	breq	.+20     	; 0x7ca <__stack+0x36b>
 7b6:	21 fd       	sbrc	r18, 1
 7b8:	02 c0       	rjmp	.+4      	; 0x7be <__stack+0x35f>
 7ba:	80 e2       	ldi	r24, 0x20	; 32
 7bc:	01 c0       	rjmp	.+2      	; 0x7c0 <__stack+0x361>
 7be:	8b e2       	ldi	r24, 0x2B	; 43
 7c0:	27 fd       	sbrc	r18, 7
 7c2:	8d e2       	ldi	r24, 0x2D	; 45
 7c4:	b7 01       	movw	r22, r14
 7c6:	90 e0       	ldi	r25, 0x00	; 0
 7c8:	49 d1       	rcall	.+658    	; 0xa5c <fputc>
 7ca:	c1 16       	cp	r12, r17
 7cc:	30 f4       	brcc	.+12     	; 0x7da <__stack+0x37b>
 7ce:	b7 01       	movw	r22, r14
 7d0:	80 e3       	ldi	r24, 0x30	; 48
 7d2:	90 e0       	ldi	r25, 0x00	; 0
 7d4:	43 d1       	rcall	.+646    	; 0xa5c <fputc>
 7d6:	11 50       	subi	r17, 0x01	; 1
 7d8:	f8 cf       	rjmp	.-16     	; 0x7ca <__stack+0x36b>
 7da:	ca 94       	dec	r12
 7dc:	f4 01       	movw	r30, r8
 7de:	ec 0d       	add	r30, r12
 7e0:	f1 1d       	adc	r31, r1
 7e2:	80 81       	ld	r24, Z
 7e4:	b7 01       	movw	r22, r14
 7e6:	90 e0       	ldi	r25, 0x00	; 0
 7e8:	39 d1       	rcall	.+626    	; 0xa5c <fputc>
 7ea:	c1 10       	cpse	r12, r1
 7ec:	f6 cf       	rjmp	.-20     	; 0x7da <__stack+0x37b>
 7ee:	55 20       	and	r5, r5
 7f0:	09 f4       	brne	.+2      	; 0x7f4 <__stack+0x395>
 7f2:	dd cc       	rjmp	.-1606   	; 0x1ae <vfprintf+0x54>
 7f4:	b7 01       	movw	r22, r14
 7f6:	80 e2       	ldi	r24, 0x20	; 32
 7f8:	90 e0       	ldi	r25, 0x00	; 0
 7fa:	30 d1       	rcall	.+608    	; 0xa5c <fputc>
 7fc:	5a 94       	dec	r5
 7fe:	f7 cf       	rjmp	.-18     	; 0x7ee <__stack+0x38f>
 800:	f7 01       	movw	r30, r14
 802:	86 81       	ldd	r24, Z+6	; 0x06
 804:	97 81       	ldd	r25, Z+7	; 0x07
 806:	02 c0       	rjmp	.+4      	; 0x80c <__stack+0x3ad>
 808:	8f ef       	ldi	r24, 0xFF	; 255
 80a:	9f ef       	ldi	r25, 0xFF	; 255
 80c:	63 96       	adiw	r28, 0x13	; 19
 80e:	e2 e1       	ldi	r30, 0x12	; 18
 810:	1c c0       	rjmp	.+56     	; 0x84a <__epilogue_restores__>

00000812 <__prologue_saves__>:
 812:	2f 92       	push	r2
 814:	3f 92       	push	r3
 816:	4f 92       	push	r4
 818:	5f 92       	push	r5
 81a:	6f 92       	push	r6
 81c:	7f 92       	push	r7
 81e:	8f 92       	push	r8
 820:	9f 92       	push	r9
 822:	af 92       	push	r10
 824:	bf 92       	push	r11
 826:	cf 92       	push	r12
 828:	df 92       	push	r13
 82a:	ef 92       	push	r14
 82c:	ff 92       	push	r15
 82e:	0f 93       	push	r16
 830:	1f 93       	push	r17
 832:	cf 93       	push	r28
 834:	df 93       	push	r29
 836:	cd b7       	in	r28, 0x3d	; 61
 838:	de b7       	in	r29, 0x3e	; 62
 83a:	ca 1b       	sub	r28, r26
 83c:	db 0b       	sbc	r29, r27
 83e:	0f b6       	in	r0, 0x3f	; 63
 840:	f8 94       	cli
 842:	de bf       	out	0x3e, r29	; 62
 844:	0f be       	out	0x3f, r0	; 63
 846:	cd bf       	out	0x3d, r28	; 61
 848:	09 94       	ijmp

0000084a <__epilogue_restores__>:
 84a:	2a 88       	ldd	r2, Y+18	; 0x12
 84c:	39 88       	ldd	r3, Y+17	; 0x11
 84e:	48 88       	ldd	r4, Y+16	; 0x10
 850:	5f 84       	ldd	r5, Y+15	; 0x0f
 852:	6e 84       	ldd	r6, Y+14	; 0x0e
 854:	7d 84       	ldd	r7, Y+13	; 0x0d
 856:	8c 84       	ldd	r8, Y+12	; 0x0c
 858:	9b 84       	ldd	r9, Y+11	; 0x0b
 85a:	aa 84       	ldd	r10, Y+10	; 0x0a
 85c:	b9 84       	ldd	r11, Y+9	; 0x09
 85e:	c8 84       	ldd	r12, Y+8	; 0x08
 860:	df 80       	ldd	r13, Y+7	; 0x07
 862:	ee 80       	ldd	r14, Y+6	; 0x06
 864:	fd 80       	ldd	r15, Y+5	; 0x05
 866:	0c 81       	ldd	r16, Y+4	; 0x04
 868:	1b 81       	ldd	r17, Y+3	; 0x03
 86a:	aa 81       	ldd	r26, Y+2	; 0x02
 86c:	b9 81       	ldd	r27, Y+1	; 0x01
 86e:	ce 0f       	add	r28, r30
 870:	d1 1d       	adc	r29, r1
 872:	0f b6       	in	r0, 0x3f	; 63
 874:	f8 94       	cli
 876:	de bf       	out	0x3e, r29	; 62
 878:	0f be       	out	0x3f, r0	; 63
 87a:	cd bf       	out	0x3d, r28	; 61
 87c:	ed 01       	movw	r28, r26
 87e:	08 95       	ret

00000880 <__ftoa_engine>:
 880:	28 30       	cpi	r18, 0x08	; 8
 882:	08 f0       	brcs	.+2      	; 0x886 <__ftoa_engine+0x6>
 884:	27 e0       	ldi	r18, 0x07	; 7
 886:	33 27       	eor	r19, r19
 888:	da 01       	movw	r26, r20
 88a:	99 0f       	add	r25, r25
 88c:	31 1d       	adc	r19, r1
 88e:	87 fd       	sbrc	r24, 7
 890:	91 60       	ori	r25, 0x01	; 1
 892:	00 96       	adiw	r24, 0x00	; 0
 894:	61 05       	cpc	r22, r1
 896:	71 05       	cpc	r23, r1
 898:	39 f4       	brne	.+14     	; 0x8a8 <__ftoa_engine+0x28>
 89a:	32 60       	ori	r19, 0x02	; 2
 89c:	2e 5f       	subi	r18, 0xFE	; 254
 89e:	3d 93       	st	X+, r19
 8a0:	30 e3       	ldi	r19, 0x30	; 48
 8a2:	2a 95       	dec	r18
 8a4:	e1 f7       	brne	.-8      	; 0x89e <__ftoa_engine+0x1e>
 8a6:	08 95       	ret
 8a8:	9f 3f       	cpi	r25, 0xFF	; 255
 8aa:	30 f0       	brcs	.+12     	; 0x8b8 <__ftoa_engine+0x38>
 8ac:	80 38       	cpi	r24, 0x80	; 128
 8ae:	71 05       	cpc	r23, r1
 8b0:	61 05       	cpc	r22, r1
 8b2:	09 f0       	breq	.+2      	; 0x8b6 <__ftoa_engine+0x36>
 8b4:	3c 5f       	subi	r19, 0xFC	; 252
 8b6:	3c 5f       	subi	r19, 0xFC	; 252
 8b8:	3d 93       	st	X+, r19
 8ba:	91 30       	cpi	r25, 0x01	; 1
 8bc:	08 f0       	brcs	.+2      	; 0x8c0 <__ftoa_engine+0x40>
 8be:	80 68       	ori	r24, 0x80	; 128
 8c0:	91 1d       	adc	r25, r1
 8c2:	df 93       	push	r29
 8c4:	cf 93       	push	r28
 8c6:	1f 93       	push	r17
 8c8:	0f 93       	push	r16
 8ca:	ff 92       	push	r15
 8cc:	ef 92       	push	r14
 8ce:	19 2f       	mov	r17, r25
 8d0:	98 7f       	andi	r25, 0xF8	; 248
 8d2:	96 95       	lsr	r25
 8d4:	e9 2f       	mov	r30, r25
 8d6:	96 95       	lsr	r25
 8d8:	96 95       	lsr	r25
 8da:	e9 0f       	add	r30, r25
 8dc:	ff 27       	eor	r31, r31
 8de:	e8 57       	subi	r30, 0x78	; 120
 8e0:	ff 4f       	sbci	r31, 0xFF	; 255
 8e2:	99 27       	eor	r25, r25
 8e4:	33 27       	eor	r19, r19
 8e6:	ee 24       	eor	r14, r14
 8e8:	ff 24       	eor	r15, r15
 8ea:	a7 01       	movw	r20, r14
 8ec:	e7 01       	movw	r28, r14
 8ee:	05 90       	lpm	r0, Z+
 8f0:	08 94       	sec
 8f2:	07 94       	ror	r0
 8f4:	28 f4       	brcc	.+10     	; 0x900 <__ftoa_engine+0x80>
 8f6:	36 0f       	add	r19, r22
 8f8:	e7 1e       	adc	r14, r23
 8fa:	f8 1e       	adc	r15, r24
 8fc:	49 1f       	adc	r20, r25
 8fe:	51 1d       	adc	r21, r1
 900:	66 0f       	add	r22, r22
 902:	77 1f       	adc	r23, r23
 904:	88 1f       	adc	r24, r24
 906:	99 1f       	adc	r25, r25
 908:	06 94       	lsr	r0
 90a:	a1 f7       	brne	.-24     	; 0x8f4 <__ftoa_engine+0x74>
 90c:	05 90       	lpm	r0, Z+
 90e:	07 94       	ror	r0
 910:	28 f4       	brcc	.+10     	; 0x91c <__ftoa_engine+0x9c>
 912:	e7 0e       	add	r14, r23
 914:	f8 1e       	adc	r15, r24
 916:	49 1f       	adc	r20, r25
 918:	56 1f       	adc	r21, r22
 91a:	c1 1d       	adc	r28, r1
 91c:	77 0f       	add	r23, r23
 91e:	88 1f       	adc	r24, r24
 920:	99 1f       	adc	r25, r25
 922:	66 1f       	adc	r22, r22
 924:	06 94       	lsr	r0
 926:	a1 f7       	brne	.-24     	; 0x910 <__ftoa_engine+0x90>
 928:	05 90       	lpm	r0, Z+
 92a:	07 94       	ror	r0
 92c:	28 f4       	brcc	.+10     	; 0x938 <__ftoa_engine+0xb8>
 92e:	f8 0e       	add	r15, r24
 930:	49 1f       	adc	r20, r25
 932:	56 1f       	adc	r21, r22
 934:	c7 1f       	adc	r28, r23
 936:	d1 1d       	adc	r29, r1
 938:	88 0f       	add	r24, r24
 93a:	99 1f       	adc	r25, r25
 93c:	66 1f       	adc	r22, r22
 93e:	77 1f       	adc	r23, r23
 940:	06 94       	lsr	r0
 942:	a1 f7       	brne	.-24     	; 0x92c <__ftoa_engine+0xac>
 944:	05 90       	lpm	r0, Z+
 946:	07 94       	ror	r0
 948:	20 f4       	brcc	.+8      	; 0x952 <__ftoa_engine+0xd2>
 94a:	49 0f       	add	r20, r25
 94c:	56 1f       	adc	r21, r22
 94e:	c7 1f       	adc	r28, r23
 950:	d8 1f       	adc	r29, r24
 952:	99 0f       	add	r25, r25
 954:	66 1f       	adc	r22, r22
 956:	77 1f       	adc	r23, r23
 958:	88 1f       	adc	r24, r24
 95a:	06 94       	lsr	r0
 95c:	a9 f7       	brne	.-22     	; 0x948 <__ftoa_engine+0xc8>
 95e:	84 91       	lpm	r24, Z
 960:	10 95       	com	r17
 962:	17 70       	andi	r17, 0x07	; 7
 964:	41 f0       	breq	.+16     	; 0x976 <__ftoa_engine+0xf6>
 966:	d6 95       	lsr	r29
 968:	c7 95       	ror	r28
 96a:	57 95       	ror	r21
 96c:	47 95       	ror	r20
 96e:	f7 94       	ror	r15
 970:	e7 94       	ror	r14
 972:	1a 95       	dec	r17
 974:	c1 f7       	brne	.-16     	; 0x966 <__ftoa_engine+0xe6>
 976:	ee e2       	ldi	r30, 0x2E	; 46
 978:	f0 e0       	ldi	r31, 0x00	; 0
 97a:	68 94       	set
 97c:	15 90       	lpm	r1, Z+
 97e:	15 91       	lpm	r17, Z+
 980:	35 91       	lpm	r19, Z+
 982:	65 91       	lpm	r22, Z+
 984:	95 91       	lpm	r25, Z+
 986:	05 90       	lpm	r0, Z+
 988:	7f e2       	ldi	r23, 0x2F	; 47
 98a:	73 95       	inc	r23
 98c:	e1 18       	sub	r14, r1
 98e:	f1 0a       	sbc	r15, r17
 990:	43 0b       	sbc	r20, r19
 992:	56 0b       	sbc	r21, r22
 994:	c9 0b       	sbc	r28, r25
 996:	d0 09       	sbc	r29, r0
 998:	c0 f7       	brcc	.-16     	; 0x98a <__ftoa_engine+0x10a>
 99a:	e1 0c       	add	r14, r1
 99c:	f1 1e       	adc	r15, r17
 99e:	43 1f       	adc	r20, r19
 9a0:	56 1f       	adc	r21, r22
 9a2:	c9 1f       	adc	r28, r25
 9a4:	d0 1d       	adc	r29, r0
 9a6:	7e f4       	brtc	.+30     	; 0x9c6 <__ftoa_engine+0x146>
 9a8:	70 33       	cpi	r23, 0x30	; 48
 9aa:	11 f4       	brne	.+4      	; 0x9b0 <__ftoa_engine+0x130>
 9ac:	8a 95       	dec	r24
 9ae:	e6 cf       	rjmp	.-52     	; 0x97c <__ftoa_engine+0xfc>
 9b0:	e8 94       	clt
 9b2:	01 50       	subi	r16, 0x01	; 1
 9b4:	30 f0       	brcs	.+12     	; 0x9c2 <__ftoa_engine+0x142>
 9b6:	08 0f       	add	r16, r24
 9b8:	0a f4       	brpl	.+2      	; 0x9bc <__ftoa_engine+0x13c>
 9ba:	00 27       	eor	r16, r16
 9bc:	02 17       	cp	r16, r18
 9be:	08 f4       	brcc	.+2      	; 0x9c2 <__ftoa_engine+0x142>
 9c0:	20 2f       	mov	r18, r16
 9c2:	23 95       	inc	r18
 9c4:	02 2f       	mov	r16, r18
 9c6:	7a 33       	cpi	r23, 0x3A	; 58
 9c8:	28 f0       	brcs	.+10     	; 0x9d4 <__ftoa_engine+0x154>
 9ca:	79 e3       	ldi	r23, 0x39	; 57
 9cc:	7d 93       	st	X+, r23
 9ce:	2a 95       	dec	r18
 9d0:	e9 f7       	brne	.-6      	; 0x9cc <__ftoa_engine+0x14c>
 9d2:	10 c0       	rjmp	.+32     	; 0x9f4 <__ftoa_engine+0x174>
 9d4:	7d 93       	st	X+, r23
 9d6:	2a 95       	dec	r18
 9d8:	89 f6       	brne	.-94     	; 0x97c <__ftoa_engine+0xfc>
 9da:	06 94       	lsr	r0
 9dc:	97 95       	ror	r25
 9de:	67 95       	ror	r22
 9e0:	37 95       	ror	r19
 9e2:	17 95       	ror	r17
 9e4:	17 94       	ror	r1
 9e6:	e1 18       	sub	r14, r1
 9e8:	f1 0a       	sbc	r15, r17
 9ea:	43 0b       	sbc	r20, r19
 9ec:	56 0b       	sbc	r21, r22
 9ee:	c9 0b       	sbc	r28, r25
 9f0:	d0 09       	sbc	r29, r0
 9f2:	98 f0       	brcs	.+38     	; 0xa1a <__ftoa_engine+0x19a>
 9f4:	23 95       	inc	r18
 9f6:	7e 91       	ld	r23, -X
 9f8:	73 95       	inc	r23
 9fa:	7a 33       	cpi	r23, 0x3A	; 58
 9fc:	08 f0       	brcs	.+2      	; 0xa00 <__ftoa_engine+0x180>
 9fe:	70 e3       	ldi	r23, 0x30	; 48
 a00:	7c 93       	st	X, r23
 a02:	20 13       	cpse	r18, r16
 a04:	b8 f7       	brcc	.-18     	; 0x9f4 <__ftoa_engine+0x174>
 a06:	7e 91       	ld	r23, -X
 a08:	70 61       	ori	r23, 0x10	; 16
 a0a:	7d 93       	st	X+, r23
 a0c:	30 f0       	brcs	.+12     	; 0xa1a <__ftoa_engine+0x19a>
 a0e:	83 95       	inc	r24
 a10:	71 e3       	ldi	r23, 0x31	; 49
 a12:	7d 93       	st	X+, r23
 a14:	70 e3       	ldi	r23, 0x30	; 48
 a16:	2a 95       	dec	r18
 a18:	e1 f7       	brne	.-8      	; 0xa12 <__ftoa_engine+0x192>
 a1a:	11 24       	eor	r1, r1
 a1c:	ef 90       	pop	r14
 a1e:	ff 90       	pop	r15
 a20:	0f 91       	pop	r16
 a22:	1f 91       	pop	r17
 a24:	cf 91       	pop	r28
 a26:	df 91       	pop	r29
 a28:	99 27       	eor	r25, r25
 a2a:	87 fd       	sbrc	r24, 7
 a2c:	90 95       	com	r25
 a2e:	08 95       	ret

00000a30 <strnlen_P>:
 a30:	fc 01       	movw	r30, r24
 a32:	05 90       	lpm	r0, Z+
 a34:	61 50       	subi	r22, 0x01	; 1
 a36:	70 40       	sbci	r23, 0x00	; 0
 a38:	01 10       	cpse	r0, r1
 a3a:	d8 f7       	brcc	.-10     	; 0xa32 <strnlen_P+0x2>
 a3c:	80 95       	com	r24
 a3e:	90 95       	com	r25
 a40:	8e 0f       	add	r24, r30
 a42:	9f 1f       	adc	r25, r31
 a44:	08 95       	ret

00000a46 <strnlen>:
 a46:	fc 01       	movw	r30, r24
 a48:	61 50       	subi	r22, 0x01	; 1
 a4a:	70 40       	sbci	r23, 0x00	; 0
 a4c:	01 90       	ld	r0, Z+
 a4e:	01 10       	cpse	r0, r1
 a50:	d8 f7       	brcc	.-10     	; 0xa48 <strnlen+0x2>
 a52:	80 95       	com	r24
 a54:	90 95       	com	r25
 a56:	8e 0f       	add	r24, r30
 a58:	9f 1f       	adc	r25, r31
 a5a:	08 95       	ret

00000a5c <fputc>:
 a5c:	0f 93       	push	r16
 a5e:	1f 93       	push	r17
 a60:	cf 93       	push	r28
 a62:	df 93       	push	r29
 a64:	18 2f       	mov	r17, r24
 a66:	09 2f       	mov	r16, r25
 a68:	eb 01       	movw	r28, r22
 a6a:	8b 81       	ldd	r24, Y+3	; 0x03
 a6c:	81 fd       	sbrc	r24, 1
 a6e:	03 c0       	rjmp	.+6      	; 0xa76 <fputc+0x1a>
 a70:	8f ef       	ldi	r24, 0xFF	; 255
 a72:	9f ef       	ldi	r25, 0xFF	; 255
 a74:	20 c0       	rjmp	.+64     	; 0xab6 <fputc+0x5a>
 a76:	82 ff       	sbrs	r24, 2
 a78:	10 c0       	rjmp	.+32     	; 0xa9a <fputc+0x3e>
 a7a:	4e 81       	ldd	r20, Y+6	; 0x06
 a7c:	5f 81       	ldd	r21, Y+7	; 0x07
 a7e:	2c 81       	ldd	r18, Y+4	; 0x04
 a80:	3d 81       	ldd	r19, Y+5	; 0x05
 a82:	42 17       	cp	r20, r18
 a84:	53 07       	cpc	r21, r19
 a86:	7c f4       	brge	.+30     	; 0xaa6 <fputc+0x4a>
 a88:	e8 81       	ld	r30, Y
 a8a:	f9 81       	ldd	r31, Y+1	; 0x01
 a8c:	9f 01       	movw	r18, r30
 a8e:	2f 5f       	subi	r18, 0xFF	; 255
 a90:	3f 4f       	sbci	r19, 0xFF	; 255
 a92:	39 83       	std	Y+1, r19	; 0x01
 a94:	28 83       	st	Y, r18
 a96:	10 83       	st	Z, r17
 a98:	06 c0       	rjmp	.+12     	; 0xaa6 <fputc+0x4a>
 a9a:	e8 85       	ldd	r30, Y+8	; 0x08
 a9c:	f9 85       	ldd	r31, Y+9	; 0x09
 a9e:	81 2f       	mov	r24, r17
 aa0:	09 95       	icall
 aa2:	89 2b       	or	r24, r25
 aa4:	29 f7       	brne	.-54     	; 0xa70 <fputc+0x14>
 aa6:	2e 81       	ldd	r18, Y+6	; 0x06
 aa8:	3f 81       	ldd	r19, Y+7	; 0x07
 aaa:	2f 5f       	subi	r18, 0xFF	; 255
 aac:	3f 4f       	sbci	r19, 0xFF	; 255
 aae:	3f 83       	std	Y+7, r19	; 0x07
 ab0:	2e 83       	std	Y+6, r18	; 0x06
 ab2:	81 2f       	mov	r24, r17
 ab4:	90 2f       	mov	r25, r16
 ab6:	df 91       	pop	r29
 ab8:	cf 91       	pop	r28
 aba:	1f 91       	pop	r17
 abc:	0f 91       	pop	r16
 abe:	08 95       	ret

00000ac0 <__ultoa_invert>:
 ac0:	fa 01       	movw	r30, r20
 ac2:	aa 27       	eor	r26, r26
 ac4:	28 30       	cpi	r18, 0x08	; 8
 ac6:	51 f1       	breq	.+84     	; 0xb1c <__ultoa_invert+0x5c>
 ac8:	20 31       	cpi	r18, 0x10	; 16
 aca:	81 f1       	breq	.+96     	; 0xb2c <__ultoa_invert+0x6c>
 acc:	e8 94       	clt
 ace:	6f 93       	push	r22
 ad0:	6e 7f       	andi	r22, 0xFE	; 254
 ad2:	6e 5f       	subi	r22, 0xFE	; 254
 ad4:	7f 4f       	sbci	r23, 0xFF	; 255
 ad6:	8f 4f       	sbci	r24, 0xFF	; 255
 ad8:	9f 4f       	sbci	r25, 0xFF	; 255
 ada:	af 4f       	sbci	r26, 0xFF	; 255
 adc:	b1 e0       	ldi	r27, 0x01	; 1
 ade:	3e d0       	rcall	.+124    	; 0xb5c <__ultoa_invert+0x9c>
 ae0:	b4 e0       	ldi	r27, 0x04	; 4
 ae2:	3c d0       	rcall	.+120    	; 0xb5c <__ultoa_invert+0x9c>
 ae4:	67 0f       	add	r22, r23
 ae6:	78 1f       	adc	r23, r24
 ae8:	89 1f       	adc	r24, r25
 aea:	9a 1f       	adc	r25, r26
 aec:	a1 1d       	adc	r26, r1
 aee:	68 0f       	add	r22, r24
 af0:	79 1f       	adc	r23, r25
 af2:	8a 1f       	adc	r24, r26
 af4:	91 1d       	adc	r25, r1
 af6:	a1 1d       	adc	r26, r1
 af8:	6a 0f       	add	r22, r26
 afa:	71 1d       	adc	r23, r1
 afc:	81 1d       	adc	r24, r1
 afe:	91 1d       	adc	r25, r1
 b00:	a1 1d       	adc	r26, r1
 b02:	20 d0       	rcall	.+64     	; 0xb44 <__ultoa_invert+0x84>
 b04:	09 f4       	brne	.+2      	; 0xb08 <__ultoa_invert+0x48>
 b06:	68 94       	set
 b08:	3f 91       	pop	r19
 b0a:	2a e0       	ldi	r18, 0x0A	; 10
 b0c:	26 9f       	mul	r18, r22
 b0e:	11 24       	eor	r1, r1
 b10:	30 19       	sub	r19, r0
 b12:	30 5d       	subi	r19, 0xD0	; 208
 b14:	31 93       	st	Z+, r19
 b16:	de f6       	brtc	.-74     	; 0xace <__ultoa_invert+0xe>
 b18:	cf 01       	movw	r24, r30
 b1a:	08 95       	ret
 b1c:	46 2f       	mov	r20, r22
 b1e:	47 70       	andi	r20, 0x07	; 7
 b20:	40 5d       	subi	r20, 0xD0	; 208
 b22:	41 93       	st	Z+, r20
 b24:	b3 e0       	ldi	r27, 0x03	; 3
 b26:	0f d0       	rcall	.+30     	; 0xb46 <__ultoa_invert+0x86>
 b28:	c9 f7       	brne	.-14     	; 0xb1c <__ultoa_invert+0x5c>
 b2a:	f6 cf       	rjmp	.-20     	; 0xb18 <__ultoa_invert+0x58>
 b2c:	46 2f       	mov	r20, r22
 b2e:	4f 70       	andi	r20, 0x0F	; 15
 b30:	40 5d       	subi	r20, 0xD0	; 208
 b32:	4a 33       	cpi	r20, 0x3A	; 58
 b34:	18 f0       	brcs	.+6      	; 0xb3c <__ultoa_invert+0x7c>
 b36:	49 5d       	subi	r20, 0xD9	; 217
 b38:	31 fd       	sbrc	r19, 1
 b3a:	40 52       	subi	r20, 0x20	; 32
 b3c:	41 93       	st	Z+, r20
 b3e:	02 d0       	rcall	.+4      	; 0xb44 <__ultoa_invert+0x84>
 b40:	a9 f7       	brne	.-22     	; 0xb2c <__ultoa_invert+0x6c>
 b42:	ea cf       	rjmp	.-44     	; 0xb18 <__ultoa_invert+0x58>
 b44:	b4 e0       	ldi	r27, 0x04	; 4
 b46:	a6 95       	lsr	r26
 b48:	97 95       	ror	r25
 b4a:	87 95       	ror	r24
 b4c:	77 95       	ror	r23
 b4e:	67 95       	ror	r22
 b50:	ba 95       	dec	r27
 b52:	c9 f7       	brne	.-14     	; 0xb46 <__ultoa_invert+0x86>
 b54:	00 97       	sbiw	r24, 0x00	; 0
 b56:	61 05       	cpc	r22, r1
 b58:	71 05       	cpc	r23, r1
 b5a:	08 95       	ret
 b5c:	9b 01       	movw	r18, r22
 b5e:	ac 01       	movw	r20, r24
 b60:	0a 2e       	mov	r0, r26
 b62:	06 94       	lsr	r0
 b64:	57 95       	ror	r21
 b66:	47 95       	ror	r20
 b68:	37 95       	ror	r19
 b6a:	27 95       	ror	r18
 b6c:	ba 95       	dec	r27
 b6e:	c9 f7       	brne	.-14     	; 0xb62 <__ultoa_invert+0xa2>
 b70:	62 0f       	add	r22, r18
 b72:	73 1f       	adc	r23, r19
 b74:	84 1f       	adc	r24, r20
 b76:	95 1f       	adc	r25, r21
 b78:	a0 1d       	adc	r26, r0
 b7a:	08 95       	ret

00000b7c <_exit>:
 b7c:	f8 94       	cli

00000b7e <__stop_program>:
 b7e:	ff cf       	rjmp	.-2      	; 0xb7e <__stop_program>
